{
  "_format": "hh-sol-artifact-1",
  "contractName": "Escrow",
  "sourceName": "contracts/Escrow.sol",
  "abi": [
    {
      "inputs": [
        {
          "internalType": "address",
          "name": "_nftAddress",
          "type": "address"
        }
      ],
      "stateMutability": "nonpayable",
      "type": "constructor"
    },
    {
      "inputs": [],
      "name": "EnforcedPause",
      "type": "error"
    },
    {
      "inputs": [],
      "name": "ExpectedPause",
      "type": "error"
    },
    {
      "inputs": [
        {
          "internalType": "address",
          "name": "owner",
          "type": "address"
        }
      ],
      "name": "OwnableInvalidOwner",
      "type": "error"
    },
    {
      "inputs": [
        {
          "internalType": "address",
          "name": "account",
          "type": "address"
        }
      ],
      "name": "OwnableUnauthorizedAccount",
      "type": "error"
    },
    {
      "inputs": [],
      "name": "ReentrancyGuardReentrantCall",
      "type": "error"
    },
    {
      "anonymous": false,
      "inputs": [
        {
          "indexed": true,
          "internalType": "uint256",
          "name": "tokenId",
          "type": "uint256"
        },
        {
          "indexed": true,
          "internalType": "address",
          "name": "buyer",
          "type": "address"
        },
        {
          "indexed": true,
          "internalType": "address",
          "name": "seller",
          "type": "address"
        },
        {
          "indexed": false,
          "internalType": "uint256",
          "name": "price",
          "type": "uint256"
        },
        {
          "indexed": false,
          "internalType": "uint256",
          "name": "fee",
          "type": "uint256"
        },
        {
          "indexed": false,
          "internalType": "uint256",
          "name": "royalty",
          "type": "uint256"
        }
      ],
      "name": "DirectPurchased",
      "type": "event"
    },
    {
      "anonymous": false,
      "inputs": [
        {
          "indexed": true,
          "internalType": "uint256",
          "name": "tokenId",
          "type": "uint256"
        },
        {
          "indexed": true,
          "internalType": "address",
          "name": "buyer",
          "type": "address"
        },
        {
          "indexed": false,
          "internalType": "uint256",
          "name": "amount",
          "type": "uint256"
        }
      ],
      "name": "EarnestDeposited",
      "type": "event"
    },
    {
      "anonymous": false,
      "inputs": [
        {
          "indexed": false,
          "internalType": "address",
          "name": "newRecipient",
          "type": "address"
        }
      ],
      "name": "FeeRecipientChanged",
      "type": "event"
    },
    {
      "anonymous": false,
      "inputs": [
        {
          "indexed": true,
          "internalType": "uint256",
          "name": "tokenId",
          "type": "uint256"
        },
        {
          "indexed": true,
          "internalType": "address",
          "name": "buyer",
          "type": "address"
        },
        {
          "indexed": true,
          "internalType": "address",
          "name": "seller",
          "type": "address"
        },
        {
          "indexed": false,
          "internalType": "uint256",
          "name": "price",
          "type": "uint256"
        }
      ],
      "name": "Finalized",
      "type": "event"
    },
    {
      "anonymous": false,
      "inputs": [
        {
          "indexed": true,
          "internalType": "uint256",
          "name": "tokenId",
          "type": "uint256"
        },
        {
          "indexed": true,
          "internalType": "address",
          "name": "seller",
          "type": "address"
        },
        {
          "indexed": false,
          "internalType": "uint256",
          "name": "price",
          "type": "uint256"
        }
      ],
      "name": "Listed",
      "type": "event"
    },
    {
      "anonymous": false,
      "inputs": [
        {
          "indexed": true,
          "internalType": "uint256",
          "name": "tokenId",
          "type": "uint256"
        },
        {
          "indexed": true,
          "internalType": "address",
          "name": "seller",
          "type": "address"
        }
      ],
      "name": "ListingCancelled",
      "type": "event"
    },
    {
      "anonymous": false,
      "inputs": [
        {
          "indexed": true,
          "internalType": "uint256",
          "name": "tokenId",
          "type": "uint256"
        },
        {
          "indexed": false,
          "internalType": "uint256",
          "name": "newPrice",
          "type": "uint256"
        }
      ],
      "name": "ListingUpdated",
      "type": "event"
    },
    {
      "anonymous": false,
      "inputs": [
        {
          "indexed": false,
          "internalType": "address",
          "name": "newAddress",
          "type": "address"
        }
      ],
      "name": "NFTAddressUpdated",
      "type": "event"
    },
    {
      "anonymous": false,
      "inputs": [
        {
          "indexed": true,
          "internalType": "address",
          "name": "buyer",
          "type": "address"
        },
        {
          "indexed": true,
          "internalType": "uint256",
          "name": "tokenId",
          "type": "uint256"
        },
        {
          "indexed": false,
          "internalType": "uint256",
          "name": "price",
          "type": "uint256"
        }
      ],
      "name": "NFTPurchased",
      "type": "event"
    },
    {
      "anonymous": false,
      "inputs": [
        {
          "indexed": true,
          "internalType": "address",
          "name": "seller",
          "type": "address"
        },
        {
          "indexed": true,
          "internalType": "uint256",
          "name": "tokenId",
          "type": "uint256"
        },
        {
          "indexed": false,
          "internalType": "uint256",
          "name": "price",
          "type": "uint256"
        }
      ],
      "name": "NFTSold",
      "type": "event"
    },
    {
      "anonymous": false,
      "inputs": [
        {
          "indexed": true,
          "internalType": "address",
          "name": "previousOwner",
          "type": "address"
        },
        {
          "indexed": true,
          "internalType": "address",
          "name": "newOwner",
          "type": "address"
        }
      ],
      "name": "OwnershipTransferred",
      "type": "event"
    },
    {
      "anonymous": false,
      "inputs": [
        {
          "indexed": false,
          "internalType": "address",
          "name": "account",
          "type": "address"
        }
      ],
      "name": "Paused",
      "type": "event"
    },
    {
      "anonymous": false,
      "inputs": [
        {
          "indexed": false,
          "internalType": "uint256",
          "name": "newFeeBps",
          "type": "uint256"
        }
      ],
      "name": "PlatformFeeChanged",
      "type": "event"
    },
    {
      "anonymous": false,
      "inputs": [
        {
          "indexed": true,
          "internalType": "uint256",
          "name": "tokenId",
          "type": "uint256"
        },
        {
          "indexed": true,
          "internalType": "address",
          "name": "to",
          "type": "address"
        },
        {
          "indexed": false,
          "internalType": "uint256",
          "name": "amount",
          "type": "uint256"
        }
      ],
      "name": "Refund",
      "type": "event"
    },
    {
      "anonymous": false,
      "inputs": [
        {
          "indexed": true,
          "internalType": "uint256",
          "name": "tokenId",
          "type": "uint256"
        },
        {
          "indexed": true,
          "internalType": "address",
          "name": "recipient",
          "type": "address"
        },
        {
          "indexed": false,
          "internalType": "uint256",
          "name": "amount",
          "type": "uint256"
        }
      ],
      "name": "RoyaltyPaid",
      "type": "event"
    },
    {
      "anonymous": false,
      "inputs": [
        {
          "indexed": false,
          "internalType": "address",
          "name": "account",
          "type": "address"
        }
      ],
      "name": "Unpaused",
      "type": "event"
    },
    {
      "stateMutability": "payable",
      "type": "fallback"
    },
    {
      "inputs": [
        {
          "internalType": "uint256",
          "name": "_tokenId",
          "type": "uint256"
        }
      ],
      "name": "buyNow",
      "outputs": [],
      "stateMutability": "payable",
      "type": "function"
    },
    {
      "inputs": [
        {
          "internalType": "uint256",
          "name": "",
          "type": "uint256"
        }
      ],
      "name": "buyer",
      "outputs": [
        {
          "internalType": "address",
          "name": "",
          "type": "address"
        }
      ],
      "stateMutability": "view",
      "type": "function"
    },
    {
      "inputs": [
        {
          "internalType": "uint256",
          "name": "_tokenId",
          "type": "uint256"
        }
      ],
      "name": "cancelListing",
      "outputs": [],
      "stateMutability": "nonpayable",
      "type": "function"
    },
    {
      "inputs": [],
      "name": "feeRecipient",
      "outputs": [
        {
          "internalType": "address payable",
          "name": "",
          "type": "address"
        }
      ],
      "stateMutability": "view",
      "type": "function"
    },
    {
      "inputs": [
        {
          "internalType": "uint256",
          "name": "_tokenId",
          "type": "uint256"
        }
      ],
      "name": "getListing",
      "outputs": [
        {
          "components": [
            {
              "internalType": "address payable",
              "name": "seller",
              "type": "address"
            },
            {
              "internalType": "uint256",
              "name": "price",
              "type": "uint256"
            },
            {
              "internalType": "bool",
              "name": "active",
              "type": "bool"
            }
          ],
          "internalType": "struct Escrow.Listing",
          "name": "",
          "type": "tuple"
        }
      ],
      "stateMutability": "view",
      "type": "function"
    },
    {
      "inputs": [],
      "name": "getPlatformInfo",
      "outputs": [
        {
          "internalType": "uint256",
          "name": "feeBps",
          "type": "uint256"
        },
        {
          "internalType": "address",
          "name": "recipient",
          "type": "address"
        }
      ],
      "stateMutability": "view",
      "type": "function"
    },
    {
      "inputs": [
        {
          "internalType": "uint256",
          "name": "_tokenId",
          "type": "uint256"
        },
        {
          "internalType": "uint256",
          "name": "_price",
          "type": "uint256"
        }
      ],
      "name": "listProperty",
      "outputs": [],
      "stateMutability": "nonpayable",
      "type": "function"
    },
    {
      "inputs": [
        {
          "internalType": "uint256",
          "name": "",
          "type": "uint256"
        }
      ],
      "name": "listings",
      "outputs": [
        {
          "internalType": "address payable",
          "name": "seller",
          "type": "address"
        },
        {
          "internalType": "uint256",
          "name": "price",
          "type": "uint256"
        },
        {
          "internalType": "bool",
          "name": "active",
          "type": "bool"
        }
      ],
      "stateMutability": "view",
      "type": "function"
    },
    {
      "inputs": [],
      "name": "nftAddress",
      "outputs": [
        {
          "internalType": "address",
          "name": "",
          "type": "address"
        }
      ],
      "stateMutability": "view",
      "type": "function"
    },
    {
      "inputs": [],
      "name": "owner",
      "outputs": [
        {
          "internalType": "address",
          "name": "",
          "type": "address"
        }
      ],
      "stateMutability": "view",
      "type": "function"
    },
    {
      "inputs": [],
      "name": "pause",
      "outputs": [],
      "stateMutability": "nonpayable",
      "type": "function"
    },
    {
      "inputs": [],
      "name": "paused",
      "outputs": [
        {
          "internalType": "bool",
          "name": "",
          "type": "bool"
        }
      ],
      "stateMutability": "view",
      "type": "function"
    },
    {
      "inputs": [],
      "name": "platformFeeBps",
      "outputs": [
        {
          "internalType": "uint256",
          "name": "",
          "type": "uint256"
        }
      ],
      "stateMutability": "view",
      "type": "function"
    },
    {
      "inputs": [
        {
          "internalType": "uint256",
          "name": "",
          "type": "uint256"
        }
      ],
      "name": "purchaseAmount",
      "outputs": [
        {
          "internalType": "uint256",
          "name": "",
          "type": "uint256"
        }
      ],
      "stateMutability": "view",
      "type": "function"
    },
    {
      "inputs": [],
      "name": "renounceOwnership",
      "outputs": [],
      "stateMutability": "nonpayable",
      "type": "function"
    },
    {
      "inputs": [
        {
          "internalType": "address payable",
          "name": "_recipient",
          "type": "address"
        }
      ],
      "name": "setFeeRecipient",
      "outputs": [],
      "stateMutability": "nonpayable",
      "type": "function"
    },
    {
      "inputs": [
        {
          "internalType": "uint256",
          "name": "_bps",
          "type": "uint256"
        }
      ],
      "name": "setPlatformFeeBps",
      "outputs": [],
      "stateMutability": "nonpayable",
      "type": "function"
    },
    {
      "inputs": [
        {
          "internalType": "address",
          "name": "newOwner",
          "type": "address"
        }
      ],
      "name": "transferOwnership",
      "outputs": [],
      "stateMutability": "nonpayable",
      "type": "function"
    },
    {
      "inputs": [],
      "name": "unpause",
      "outputs": [],
      "stateMutability": "nonpayable",
      "type": "function"
    },
    {
      "inputs": [
        {
          "internalType": "uint256",
          "name": "_tokenId",
          "type": "uint256"
        },
        {
          "internalType": "uint256",
          "name": "_newPrice",
          "type": "uint256"
        }
      ],
      "name": "updateListingPrice",
      "outputs": [],
      "stateMutability": "nonpayable",
      "type": "function"
    },
    {
      "inputs": [
        {
          "internalType": "address",
          "name": "_newAddress",
          "type": "address"
        }
      ],
      "name": "updateNFTAddress",
      "outputs": [],
      "stateMutability": "nonpayable",
      "type": "function"
    },
    {
      "inputs": [
        {
          "internalType": "address payable",
          "name": "_to",
          "type": "address"
        },
        {
          "internalType": "uint256",
          "name": "_amount",
          "type": "uint256"
        }
      ],
      "name": "withdrawStuck",
      "outputs": [],
      "stateMutability": "nonpayable",
      "type": "function"
    },
    {
      "stateMutability": "payable",
      "type": "receive"
    }
  ],
  "bytecode": "0x608060405234801561001057600080fd5b506040516134c33803806134c38339818101604052810190610032919061029c565b336001600081905550600073ffffffffffffffffffffffffffffffffffffffff168173ffffffffffffffffffffffffffffffffffffffff16036100ad5760006040517f1e4fbdf70000000000000000000000000000000000000000000000000000000081526004016100a491906102d8565b60405180910390fd5b6100bc8161017360201b60201c565b50600073ffffffffffffffffffffffffffffffffffffffff168173ffffffffffffffffffffffffffffffffffffffff160361012c576040517f08c379a000000000000000000000000000000000000000000000000000000000815260040161012390610350565b60405180910390fd5b80600260006101000a81548173ffffffffffffffffffffffffffffffffffffffff021916908373ffffffffffffffffffffffffffffffffffffffff16021790555050610370565b6000600160009054906101000a900473ffffffffffffffffffffffffffffffffffffffff16905081600160006101000a81548173ffffffffffffffffffffffffffffffffffffffff021916908373ffffffffffffffffffffffffffffffffffffffff1602179055508173ffffffffffffffffffffffffffffffffffffffff168173ffffffffffffffffffffffffffffffffffffffff167f8be0079c531659141344cd1fd0a4f28419497f9722a3daafe3b4186f6b6457e060405160405180910390a35050565b600080fd5b600073ffffffffffffffffffffffffffffffffffffffff82169050919050565b60006102698261023e565b9050919050565b6102798161025e565b811461028457600080fd5b50565b60008151905061029681610270565b92915050565b6000602082840312156102b2576102b1610239565b5b60006102c084828501610287565b91505092915050565b6102d28161025e565b82525050565b60006020820190506102ed60008301846102c9565b92915050565b600082825260208201905092915050565b7f696e76616c6964206e6674000000000000000000000000000000000000000000600082015250565b600061033a600b836102f3565b915061034582610304565b602082019050919050565b600060208201905081810360008301526103698161032d565b9050919050565b6131448061037f6000396000f3fe6080604052600436106101395760003560e01c8063776187ab116100ab578063c580c9421161006f578063c580c94214610436578063c88a978c1461045f578063cc8f070814610488578063de74e57b146104c5578063e74b981b14610504578063f2fde38b1461052d57610179565b8063776187ab146103765780638456cb59146103a257806387e4be4c146103b95780638da5cb5b146103e2578063c46049431461040d57610179565b806346904840116100fd57806346904840146102785780634dd4acaf146102a35780634eda529b146102e05780635bf8633a146103095780635c975abb14610334578063715018a61461035f57610179565b806308a0f32f146101b4578063107a274a146101d057806322dcd13e1461020d578063305a67a8146102385780633f4ba83a1461026157610179565b36610179576040517f08c379a0000000000000000000000000000000000000000000000000000000008152600401610170906120da565b60405180910390fd5b6040517f08c379a00000000000000000000000000000000000000000000000000000000081526004016101ab90612146565b60405180910390fd5b6101ce60048036038101906101c991906121a1565b610556565b005b3480156101dc57600080fd5b506101f760048036038101906101f291906121a1565b610dbb565b604051610204919061227b565b60405180910390f35b34801561021957600080fd5b50610222610e63565b60405161022f91906122a5565b60405180910390f35b34801561024457600080fd5b5061025f600480360381019061025a91906121a1565b610e69565b005b34801561026d57600080fd5b50610276611120565b005b34801561028457600080fd5b5061028d611132565b60405161029a91906122cf565b60405180910390f35b3480156102af57600080fd5b506102ca60048036038101906102c591906121a1565b611158565b6040516102d7919061230b565b60405180910390f35b3480156102ec57600080fd5b5061030760048036038101906103029190612326565b61118b565b005b34801561031557600080fd5b5061031e611494565b60405161032b919061230b565b60405180910390f35b34801561034057600080fd5b506103496114ba565b6040516103569190612375565b60405180910390f35b34801561036b57600080fd5b506103746114d1565b005b34801561038257600080fd5b5061038b6114e5565b604051610399929190612390565b60405180910390f35b3480156103ae57600080fd5b506103b7611516565b005b3480156103c557600080fd5b506103e060048036038101906103db91906123e5565b611528565b005b3480156103ee57600080fd5b506103f761161a565b604051610404919061230b565b60405180910390f35b34801561041957600080fd5b50610434600480360381019061042f9190612326565b611644565b005b34801561044257600080fd5b5061045d600480360381019061045891906121a1565b6117f3565b005b34801561046b57600080fd5b506104866004803603810190610481919061243e565b611881565b005b34801561049457600080fd5b506104af60048036038101906104aa91906121a1565b6119b9565b6040516104bc91906122a5565b60405180910390f35b3480156104d157600080fd5b506104ec60048036038101906104e791906121a1565b6119d1565b6040516104fb9392919061247e565b60405180910390f35b34801561051057600080fd5b5061052b600480360381019061052691906124b5565b611a28565b005b34801561053957600080fd5b50610554600480360381019061054f91906123e5565b611b1a565b005b61055e611ba0565b610566611be1565b600060056000838152602001908152602001600020905060008160000160009054906101000a900473ffffffffffffffffffffffffffffffffffffffff16905060008260010154905060003390508360020160009054906101000a900460ff16610605576040517f08c379a00000000000000000000000000000000000000000000000000000000081526004016105fc9061252e565b60405180910390fd5b600073ffffffffffffffffffffffffffffffffffffffff16600460009054906101000a900473ffffffffffffffffffffffffffffffffffffffff1673ffffffffffffffffffffffffffffffffffffffff1603610696576040517f08c379a000000000000000000000000000000000000000000000000000000000815260040161068d906125c0565b60405180910390fd5b600073ffffffffffffffffffffffffffffffffffffffff168173ffffffffffffffffffffffffffffffffffffffff1603610705576040517f08c379a00000000000000000000000000000000000000000000000000000000081526004016106fc9061262c565b60405180910390fd5b8273ffffffffffffffffffffffffffffffffffffffff168173ffffffffffffffffffffffffffffffffffffffff1603610773576040517f08c379a000000000000000000000000000000000000000000000000000000000815260040161076a90612698565b60405180910390fd5b813410156107b6576040517f08c379a00000000000000000000000000000000000000000000000000000000081526004016107ad90612704565b60405180910390fd5b60008460020160006101000a81548160ff021916908315150217905550600084600101819055506000806107ea8785611c27565b915091506000612710600354866108019190612753565b61080b91906127c4565b9050808261081991906127f5565b85101561085b576040517f08c379a000000000000000000000000000000000000000000000000000000000815260040161085290612875565b60405180910390fd5b6000600460009054906101000a900473ffffffffffffffffffffffffffffffffffffffff1673ffffffffffffffffffffffffffffffffffffffff16826040516108a3906128ec565b60006040518083038185875af1925050503d80600081146108e0576040519150601f19603f3d011682016040523d82523d6000602084013e6108e5565b606091505b5050905080610929576040517f08c379a00000000000000000000000000000000000000000000000000000000081526004016109209061294d565b60405180910390fd5b6000831115610a2f5760008473ffffffffffffffffffffffffffffffffffffffff168460405161095890612993565b60006040518083038185875af1925050503d8060008114610995576040519150601f19603f3d011682016040523d82523d6000602084013e61099a565b606091505b50509050806109de576040517f08c379a00000000000000000000000000000000000000000000000000000000081526004016109d5906129f4565b60405180910390fd5b8473ffffffffffffffffffffffffffffffffffffffff168a7ff670029fc6f5302baba881b4ae845d1453acdf752b4c19ed81fe0fa6a686409b86604051610a2591906122a5565b60405180910390a3505b6000828488610a3e9190612a14565b610a489190612a14565b905060008873ffffffffffffffffffffffffffffffffffffffff1682604051610a7090612993565b60006040518083038185875af1925050503d8060008114610aad576040519150601f19603f3d011682016040523d82523d6000602084013e610ab2565b606091505b5050905080610af6576040517f08c379a0000000000000000000000000000000000000000000000000000000008152600401610aed90612a94565b60405180910390fd5b600260009054906101000a900473ffffffffffffffffffffffffffffffffffffffff1673ffffffffffffffffffffffffffffffffffffffff166323b872dd30898e6040518463ffffffff1660e01b8152600401610b5593929190612ab4565b600060405180830381600087803b158015610b6f57600080fd5b505af1158015610b83573d6000803e3d6000fd5b505050508a8773ffffffffffffffffffffffffffffffffffffffff167fa6d32bfcc7cd31e4d5ee7adeef7edd500cab0e64b4a494de4f832d41fd70f56d8a604051610bce91906122a5565b60405180910390a38a8973ffffffffffffffffffffffffffffffffffffffff167f90c126d08c53e7f57ef4e11eb379ae5bc0e2489ee38eeb36ecfcaec81fe040218a604051610c1d91906122a5565b60405180910390a360008834610c339190612a14565b90506000811115610d3b5760008873ffffffffffffffffffffffffffffffffffffffff1682604051610c6490612993565b60006040518083038185875af1925050503d8060008114610ca1576040519150601f19603f3d011682016040523d82523d6000602084013e610ca6565b606091505b5050905080610cea576040517f08c379a0000000000000000000000000000000000000000000000000000000008152600401610ce190612b37565b60405180910390fd5b8873ffffffffffffffffffffffffffffffffffffffff168d7f21e12a7cad0da5928167e1084ea4d5fdf8d9af66657a2543a9ac76a0ca08147784604051610d3191906122a5565b60405180910390a3505b8973ffffffffffffffffffffffffffffffffffffffff168873ffffffffffffffffffffffffffffffffffffffff168d7fadaa4f59ff41b602c6c0138a894df7240149a81805ed91efb03e443ad227cfd68c898b604051610d9d93929190612b57565b60405180910390a45050505050505050505050610db8611dba565b50565b610dc361201e565b600560008381526020019081526020016000206040518060600160405290816000820160009054906101000a900473ffffffffffffffffffffffffffffffffffffffff1673ffffffffffffffffffffffffffffffffffffffff1673ffffffffffffffffffffffffffffffffffffffff168152602001600182015481526020016002820160009054906101000a900460ff1615151515815250509050919050565b60035481565b610e71611ba0565b610e79611be1565b803373ffffffffffffffffffffffffffffffffffffffff166005600083815260200190815260200160002060000160009054906101000a900473ffffffffffffffffffffffffffffffffffffffff1673ffffffffffffffffffffffffffffffffffffffff1614610f1e576040517f08c379a0000000000000000000000000000000000000000000000000000000008152600401610f1590612bda565b60405180910390fd5b60006005600084815260200190815260200160002090508060020160009054906101000a900460ff16610f86576040517f08c379a0000000000000000000000000000000000000000000000000000000008152600401610f7d90612c46565b60405180910390fd5b600260009054906101000a900473ffffffffffffffffffffffffffffffffffffffff1673ffffffffffffffffffffffffffffffffffffffff166323b872dd308360000160009054906101000a900473ffffffffffffffffffffffffffffffffffffffff16866040518463ffffffff1660e01b815260040161100993929190612cc5565b600060405180830381600087803b15801561102357600080fd5b505af1158015611037573d6000803e3d6000fd5b5050505060008160020160006101000a81548160ff02191690831515021790555060006006600085815260200190815260200160002060006101000a81548173ffffffffffffffffffffffffffffffffffffffff021916908373ffffffffffffffffffffffffffffffffffffffff1602179055508060000160009054906101000a900473ffffffffffffffffffffffffffffffffffffffff1673ffffffffffffffffffffffffffffffffffffffff16837f8e25282255ab31897df2b0456bb993ac7f84d376861aefd84901d2d63a7428a260405160405180910390a3505061111d611dba565b50565b611128611dc4565b611130611e4b565b565b600460009054906101000a900473ffffffffffffffffffffffffffffffffffffffff1681565b60066020528060005260406000206000915054906101000a900473ffffffffffffffffffffffffffffffffffffffff1681565b611193611ba0565b61119b611be1565b600081116111de576040517f08c379a00000000000000000000000000000000000000000000000000000000081526004016111d590612d48565b60405180910390fd5b6000600260009054906101000a900473ffffffffffffffffffffffffffffffffffffffff1673ffffffffffffffffffffffffffffffffffffffff16636352211e846040518263ffffffff1660e01b815260040161123b91906122a5565b602060405180830381865afa158015611258573d6000803e3d6000fd5b505050506040513d601f19601f8201168201806040525081019061127c9190612d7d565b90503373ffffffffffffffffffffffffffffffffffffffff168173ffffffffffffffffffffffffffffffffffffffff16146112ec576040517f08c379a00000000000000000000000000000000000000000000000000000000081526004016112e390612df6565b60405180910390fd5b600260009054906101000a900473ffffffffffffffffffffffffffffffffffffffff1673ffffffffffffffffffffffffffffffffffffffff166323b872dd3330866040518463ffffffff1660e01b815260040161134b93929190612ab4565b600060405180830381600087803b15801561136557600080fd5b505af1158015611379573d6000803e3d6000fd5b5050505060405180606001604052803373ffffffffffffffffffffffffffffffffffffffff168152602001838152602001600115158152506005600085815260200190815260200160002060008201518160000160006101000a81548173ffffffffffffffffffffffffffffffffffffffff021916908373ffffffffffffffffffffffffffffffffffffffff1602179055506020820151816001015560408201518160020160006101000a81548160ff0219169083151502179055509050503373ffffffffffffffffffffffffffffffffffffffff16837f50955776c5778c3b7d968d86d8c51fb6b29a7a74c20866b533268e209fc083438460405161147f91906122a5565b60405180910390a350611490611dba565b5050565b600260009054906101000a900473ffffffffffffffffffffffffffffffffffffffff1681565b6000600160149054906101000a900460ff16905090565b6114d9611dc4565b6114e36000611eae565b565b600080600354600460009054906101000a900473ffffffffffffffffffffffffffffffffffffffff16915091509091565b61151e611dc4565b611526611f74565b565b611530611dc4565b600073ffffffffffffffffffffffffffffffffffffffff168173ffffffffffffffffffffffffffffffffffffffff160361159f576040517f08c379a000000000000000000000000000000000000000000000000000000000815260040161159690612e62565b60405180910390fd5b80600260006101000a81548173ffffffffffffffffffffffffffffffffffffffff021916908373ffffffffffffffffffffffffffffffffffffffff1602179055507fc0a15db954f8aded5cda5092ae26da70558a30c4e12c48e77d87564c3197edf58160405161160f919061230b565b60405180910390a150565b6000600160009054906101000a900473ffffffffffffffffffffffffffffffffffffffff16905090565b61164c611ba0565b611654611be1565b813373ffffffffffffffffffffffffffffffffffffffff166005600083815260200190815260200160002060000160009054906101000a900473ffffffffffffffffffffffffffffffffffffffff1673ffffffffffffffffffffffffffffffffffffffff16146116f9576040517f08c379a00000000000000000000000000000000000000000000000000000000081526004016116f090612bda565b60405180910390fd5b60006005600085815260200190815260200160002090508060020160009054906101000a900460ff16611761576040517f08c379a000000000000000000000000000000000000000000000000000000000815260040161175890612c46565b60405180910390fd5b600083116117a4576040517f08c379a000000000000000000000000000000000000000000000000000000000815260040161179b90612d48565b60405180910390fd5b828160010181905550837f66bcde9f7aec9b81719a4fdec54cbafbf6c834d1f2f989d9cd2134dab8d0c0de846040516117dd91906122a5565b60405180910390a250506117ef611dba565b5050565b6117fb611dc4565b6107d0811115611840576040517f08c379a000000000000000000000000000000000000000000000000000000000815260040161183790612ece565b60405180910390fd5b806003819055507f72b05fd7e6e407beabebd17ae121166880efdc19a2a9b08063eafc0c001e470a8160405161187691906122a5565b60405180910390a150565b611889611dc4565b611891611be1565b600073ffffffffffffffffffffffffffffffffffffffff168273ffffffffffffffffffffffffffffffffffffffff1603611900576040517f08c379a00000000000000000000000000000000000000000000000000000000081526004016118f790612f3a565b60405180910390fd5b60008273ffffffffffffffffffffffffffffffffffffffff168260405161192690612993565b60006040518083038185875af1925050503d8060008114611963576040519150601f19603f3d011682016040523d82523d6000602084013e611968565b606091505b50509050806119ac576040517f08c379a00000000000000000000000000000000000000000000000000000000081526004016119a390612fa6565b60405180910390fd5b506119b5611dba565b5050565b60076020528060005260406000206000915090505481565b60056020528060005260406000206000915090508060000160009054906101000a900473ffffffffffffffffffffffffffffffffffffffff16908060010154908060020160009054906101000a900460ff16905083565b611a30611dc4565b600073ffffffffffffffffffffffffffffffffffffffff168173ffffffffffffffffffffffffffffffffffffffff1603611a9f576040517f08c379a0000000000000000000000000000000000000000000000000000000008152600401611a9690612f3a565b60405180910390fd5b80600460006101000a81548173ffffffffffffffffffffffffffffffffffffffff021916908373ffffffffffffffffffffffffffffffffffffffff1602179055507f167cccccc6e9b2892a740ec13fc1e51d3de8ea384f25bd87fee7412d588637e281604051611b0f9190612fc6565b60405180910390a150565b611b22611dc4565b600073ffffffffffffffffffffffffffffffffffffffff168173ffffffffffffffffffffffffffffffffffffffff1603611b945760006040517f1e4fbdf7000000000000000000000000000000000000000000000000000000008152600401611b8b919061230b565b60405180910390fd5b611b9d81611eae565b50565b611ba86114ba565b15611bdf576040517fd93c066500000000000000000000000000000000000000000000000000000000815260040160405180910390fd5b565b600260005403611c1d576040517f3ee5aeb500000000000000000000000000000000000000000000000000000000815260040160405180910390fd5b6002600081905550565b600080600260009054906101000a900473ffffffffffffffffffffffffffffffffffffffff1673ffffffffffffffffffffffffffffffffffffffff166301ffc9a77f2a55205a000000000000000000000000000000000000000000000000000000006040518263ffffffff1660e01b8152600401611ca5919061301c565b602060405180830381865afa925050508015611cdf57506040513d601f19601f82011682018060405250810190611cdc9190613063565b60015b611cef5760008091509150611db3565b8015611daa57600260009054906101000a900473ffffffffffffffffffffffffffffffffffffffff1673ffffffffffffffffffffffffffffffffffffffff16632a55205a86866040518363ffffffff1660e01b8152600401611d52929190613090565b6040805180830381865afa925050508015611d8b57506040513d601f19601f82011682018060405250810190611d8891906130ce565b60015b611d9c576000809250925050611db3565b818194509450505050611db3565b60008092509250505b9250929050565b6001600081905550565b611dcc611fd6565b73ffffffffffffffffffffffffffffffffffffffff16611dea61161a565b73ffffffffffffffffffffffffffffffffffffffff1614611e4957611e0d611fd6565b6040517f118cdaa7000000000000000000000000000000000000000000000000000000008152600401611e40919061230b565b60405180910390fd5b565b611e53611fde565b6000600160146101000a81548160ff0219169083151502179055507f5db9ee0a495bf2e6ff9c91a7834c1ba4fdd244a5e8aa4e537bd38aeae4b073aa611e97611fd6565b604051611ea4919061230b565b60405180910390a1565b6000600160009054906101000a900473ffffffffffffffffffffffffffffffffffffffff16905081600160006101000a81548173ffffffffffffffffffffffffffffffffffffffff021916908373ffffffffffffffffffffffffffffffffffffffff1602179055508173ffffffffffffffffffffffffffffffffffffffff168173ffffffffffffffffffffffffffffffffffffffff167f8be0079c531659141344cd1fd0a4f28419497f9722a3daafe3b4186f6b6457e060405160405180910390a35050565b611f7c611ba0565b60018060146101000a81548160ff0219169083151502179055507f62e78cea01bee320cd4e420270b5ea74000d11b0c9f74754ebdbfc544b05a258611fbf611fd6565b604051611fcc919061230b565b60405180910390a1565b600033905090565b611fe66114ba565b61201c576040517f8dfc202b00000000000000000000000000000000000000000000000000000000815260040160405180910390fd5b565b6040518060600160405280600073ffffffffffffffffffffffffffffffffffffffff168152602001600081526020016000151581525090565b600082825260208201905092915050565b7f446972656374206465706f73697473206e6f7420616c6c6f7765643b2075736560008201527f206275794e6f7700000000000000000000000000000000000000000000000000602082015250565b60006120c4602783612057565b91506120cf82612068565b604082019050919050565b600060208201905081810360008301526120f3816120b7565b9050919050565b7f46616c6c6261636b206e6f7420616c6c6f776564000000000000000000000000600082015250565b6000612130601483612057565b915061213b826120fa565b602082019050919050565b6000602082019050818103600083015261215f81612123565b9050919050565b600080fd5b6000819050919050565b61217e8161216b565b811461218957600080fd5b50565b60008135905061219b81612175565b92915050565b6000602082840312156121b7576121b6612166565b5b60006121c58482850161218c565b91505092915050565b600073ffffffffffffffffffffffffffffffffffffffff82169050919050565b60006121f9826121ce565b9050919050565b612209816121ee565b82525050565b6122188161216b565b82525050565b60008115159050919050565b6122338161221e565b82525050565b60608201600082015161224f6000850182612200565b506020820151612262602085018261220f565b506040820151612275604085018261222a565b50505050565b60006060820190506122906000830184612239565b92915050565b61229f8161216b565b82525050565b60006020820190506122ba6000830184612296565b92915050565b6122c9816121ee565b82525050565b60006020820190506122e460008301846122c0565b92915050565b60006122f5826121ce565b9050919050565b612305816122ea565b82525050565b600060208201905061232060008301846122fc565b92915050565b6000806040838503121561233d5761233c612166565b5b600061234b8582860161218c565b925050602061235c8582860161218c565b9150509250929050565b61236f8161221e565b82525050565b600060208201905061238a6000830184612366565b92915050565b60006040820190506123a56000830185612296565b6123b260208301846122fc565b9392505050565b6123c2816122ea565b81146123cd57600080fd5b50565b6000813590506123df816123b9565b92915050565b6000602082840312156123fb576123fa612166565b5b6000612409848285016123d0565b91505092915050565b61241b816121ee565b811461242657600080fd5b50565b60008135905061243881612412565b92915050565b6000806040838503121561245557612454612166565b5b600061246385828601612429565b92505060206124748582860161218c565b9150509250929050565b600060608201905061249360008301866122c0565b6124a06020830185612296565b6124ad6040830184612366565b949350505050565b6000602082840312156124cb576124ca612166565b5b60006124d984828501612429565b91505092915050565b7f4e4654206973206e6f74206c6973746564000000000000000000000000000000600082015250565b6000612518601183612057565b9150612523826124e2565b602082019050919050565b600060208201905081810360008301526125478161250b565b9050919050565b7f666565526563697069656e7420616464726573732073686f756c64206e6f742060008201527f6265207a65726f00000000000000000000000000000000000000000000000000602082015250565b60006125aa602783612057565b91506125b58261254e565b604082019050919050565b600060208201905081810360008301526125d98161259d565b9050919050565b7f427579657220616464726573732073686f756c64206e6f74206265207a65726f600082015250565b6000612616602083612057565b9150612621826125e0565b602082019050919050565b6000602082019050818103600083015261264581612609565b9050919050565b7f53656c6c6572206973206e6f7420616c6c6f77656420746f2062757900000000600082015250565b6000612682601c83612057565b915061268d8261264c565b602082019050919050565b600060208201905081810360008301526126b181612675565b9050919050565b7f496e73756666696369656e742046756e64730000000000000000000000000000600082015250565b60006126ee601283612057565b91506126f9826126b8565b602082019050919050565b6000602082019050818103600083015261271d816126e1565b9050919050565b7f4e487b7100000000000000000000000000000000000000000000000000000000600052601160045260246000fd5b600061275e8261216b565b91506127698361216b565b92508282026127778161216b565b9150828204841483151761278e5761278d612724565b5b5092915050565b7f4e487b7100000000000000000000000000000000000000000000000000000000600052601260045260246000fd5b60006127cf8261216b565b91506127da8361216b565b9250826127ea576127e9612795565b5b828204905092915050565b60006128008261216b565b915061280b8361216b565b925082820190508082111561282357612822612724565b5b92915050565b7f466565732065786365656473207468616e204e46542050726963650000000000600082015250565b600061285f601b83612057565b915061286a82612829565b602082019050919050565b6000602082019050818103600083015261288e81612852565b9050919050565b600081905092915050565b7f2000000000000000000000000000000000000000000000000000000000000000600082015250565b60006128d6600183612895565b91506128e1826128a0565b600182019050919050565b60006128f7826128c9565b9150819050919050565b7f506c6174666f726d20666565207472616e73666572206661696c656400000000600082015250565b6000612937601c83612057565b915061294282612901565b602082019050919050565b600060208201905081810360008301526129668161292a565b9050919050565b50565b600061297d600083612895565b91506129888261296d565b600082019050919050565b600061299e82612970565b9150819050919050565b7f526f79616c747920616d6f756e74207472616e73666572206661696c65640000600082015250565b60006129de601e83612057565b91506129e9826129a8565b602082019050919050565b60006020820190508181036000830152612a0d816129d1565b9050919050565b6000612a1f8261216b565b9150612a2a8361216b565b9250828203905081811115612a4257612a41612724565b5b92915050565b7f53656c6c657220616d6f756e74207472616e73666572206661696c6564000000600082015250565b6000612a7e601d83612057565b9150612a8982612a48565b602082019050919050565b60006020820190508181036000830152612aad81612a71565b9050919050565b6000606082019050612ac960008301866122fc565b612ad660208301856122fc565b612ae36040830184612296565b949350505050565b7f526566756e64207472616e73666572206661696c656400000000000000000000600082015250565b6000612b21601683612057565b9150612b2c82612aeb565b602082019050919050565b60006020820190508181036000830152612b5081612b14565b9050919050565b6000606082019050612b6c6000830186612296565b612b796020830185612296565b612b866040830184612296565b949350505050565b7f6f6e6c792073656c6c6572000000000000000000000000000000000000000000600082015250565b6000612bc4600b83612057565b9150612bcf82612b8e565b602082019050919050565b60006020820190508181036000830152612bf381612bb7565b9050919050565b7f4e4654206e6f74206c6973746564000000000000000000000000000000000000600082015250565b6000612c30600e83612057565b9150612c3b82612bfa565b602082019050919050565b60006020820190508181036000830152612c5f81612c23565b9050919050565b6000819050919050565b6000612c8b612c86612c81846121ce565b612c66565b6121ce565b9050919050565b6000612c9d82612c70565b9050919050565b6000612caf82612c92565b9050919050565b612cbf81612ca4565b82525050565b6000606082019050612cda60008301866122fc565b612ce76020830185612cb6565b612cf46040830184612296565b949350505050565b7f50726963652073686f756c64206e6f74206265207a65726f0000000000000000600082015250565b6000612d32601883612057565b9150612d3d82612cfc565b602082019050919050565b60006020820190508181036000830152612d6181612d25565b9050919050565b600081519050612d77816123b9565b92915050565b600060208284031215612d9357612d92612166565b5b6000612da184828501612d68565b91505092915050565b7f4e6f7420746f6b656e206f776e65720000000000000000000000000000000000600082015250565b6000612de0600f83612057565b9150612deb82612daa565b602082019050919050565b60006020820190508181036000830152612e0f81612dd3565b9050919050565b7f5a65726f2061646472657373206973206e6f742076616c696400000000000000600082015250565b6000612e4c601983612057565b9150612e5782612e16565b602082019050919050565b60006020820190508181036000830152612e7b81612e3f565b9050919050565b7f42707320746f6f20686967680000000000000000000000000000000000000000600082015250565b6000612eb8600c83612057565b9150612ec382612e82565b602082019050919050565b60006020820190508181036000830152612ee781612eab565b9050919050565b7f7a65726f20616464726573730000000000000000000000000000000000000000600082015250565b6000612f24600c83612057565b9150612f2f82612eee565b602082019050919050565b60006020820190508181036000830152612f5381612f17565b9050919050565b7f5769746864726177206661696c65640000000000000000000000000000000000600082015250565b6000612f90600f83612057565b9150612f9b82612f5a565b602082019050919050565b60006020820190508181036000830152612fbf81612f83565b9050919050565b6000602082019050612fdb6000830184612cb6565b92915050565b60007fffffffff0000000000000000000000000000000000000000000000000000000082169050919050565b61301681612fe1565b82525050565b6000602082019050613031600083018461300d565b92915050565b6130408161221e565b811461304b57600080fd5b50565b60008151905061305d81613037565b92915050565b60006020828403121561307957613078612166565b5b60006130878482850161304e565b91505092915050565b60006040820190506130a56000830185612296565b6130b26020830184612296565b9392505050565b6000815190506130c881612175565b92915050565b600080604083850312156130e5576130e4612166565b5b60006130f385828601612d68565b9250506020613104858286016130b9565b915050925092905056fea2646970667358221220bdfc1f9a635f18eddfe79b749c80494d5baa7ef0ac1016c59225cde15a341e9f64736f6c634300081c0033",
  "linkReferences": {},
  "deployedLinkReferences": {}
}