{
  "_format": "hh-sol-artifact-1",
  "contractName": "Escrow",
  "sourceName": "contracts/Escrow.sol",
  "abi": [
    {
      "inputs": [
        {
          "internalType": "address",
          "name": "_nftAddress",
          "type": "address"
        },
        {
          "internalType": "address",
          "name": "_seller",
          "type": "address"
        }
      ],
      "stateMutability": "nonpayable",
      "type": "constructor"
    },
    {
      "inputs": [
        {
          "internalType": "uint256",
          "name": "",
          "type": "uint256"
        }
      ],
      "name": "buyer",
      "outputs": [
        {
          "internalType": "address",
          "name": "",
          "type": "address"
        }
      ],
      "stateMutability": "view",
      "type": "function"
    },
    {
      "inputs": [
        {
          "internalType": "uint256",
          "name": "_nftId",
          "type": "uint256"
        }
      ],
      "name": "depositEarnest",
      "outputs": [],
      "stateMutability": "payable",
      "type": "function"
    },
    {
      "inputs": [
        {
          "internalType": "uint256",
          "name": "_nftId",
          "type": "uint256"
        }
      ],
      "name": "finalizeSale",
      "outputs": [],
      "stateMutability": "nonpayable",
      "type": "function"
    },
    {
      "inputs": [],
      "name": "getBalance",
      "outputs": [
        {
          "internalType": "uint256",
          "name": "",
          "type": "uint256"
        }
      ],
      "stateMutability": "view",
      "type": "function"
    },
    {
      "inputs": [
        {
          "internalType": "uint256",
          "name": "",
          "type": "uint256"
        }
      ],
      "name": "isListed",
      "outputs": [
        {
          "internalType": "bool",
          "name": "",
          "type": "bool"
        }
      ],
      "stateMutability": "view",
      "type": "function"
    },
    {
      "inputs": [
        {
          "internalType": "uint256",
          "name": "_nftId",
          "type": "uint256"
        },
        {
          "internalType": "address",
          "name": "_buyer",
          "type": "address"
        },
        {
          "internalType": "uint256",
          "name": "_purchaseAmount",
          "type": "uint256"
        }
      ],
      "name": "listProperty",
      "outputs": [],
      "stateMutability": "nonpayable",
      "type": "function"
    },
    {
      "inputs": [],
      "name": "nftAddress",
      "outputs": [
        {
          "internalType": "address",
          "name": "",
          "type": "address"
        }
      ],
      "stateMutability": "view",
      "type": "function"
    },
    {
      "inputs": [
        {
          "internalType": "uint256",
          "name": "",
          "type": "uint256"
        }
      ],
      "name": "purchaseAmount",
      "outputs": [
        {
          "internalType": "uint256",
          "name": "",
          "type": "uint256"
        }
      ],
      "stateMutability": "view",
      "type": "function"
    },
    {
      "inputs": [],
      "name": "seller",
      "outputs": [
        {
          "internalType": "address payable",
          "name": "",
          "type": "address"
        }
      ],
      "stateMutability": "view",
      "type": "function"
    },
    {
      "stateMutability": "payable",
      "type": "receive"
    }
  ],
  "bytecode": "0x608060405234801561001057600080fd5b50604051610ccf380380610ccf8339818101604052810190610032919061011d565b816000806101000a81548173ffffffffffffffffffffffffffffffffffffffff021916908373ffffffffffffffffffffffffffffffffffffffff16021790555080600160006101000a81548173ffffffffffffffffffffffffffffffffffffffff021916908373ffffffffffffffffffffffffffffffffffffffff160217905550505061015d565b600080fd5b600073ffffffffffffffffffffffffffffffffffffffff82169050919050565b60006100ea826100bf565b9050919050565b6100fa816100df565b811461010557600080fd5b50565b600081519050610117816100f1565b92915050565b60008060408385031215610134576101336100ba565b5b600061014285828601610108565b925050602061015385828601610108565b9150509250929050565b610b638061016c6000396000f3fe60806040526004361061008a5760003560e01c80635cee3533116100595780635cee353314610154578063aa9293801461017d578063cc8f0708146101a6578063e740f770146101e3578063fcce4883146101ff57610091565b806308551a531461009657806312065fe0146100c15780634dd4acaf146100ec5780635bf8633a1461012957610091565b3661009157005b600080fd5b3480156100a257600080fd5b506100ab61023c565b6040516100b8919061072b565b60405180910390f35b3480156100cd57600080fd5b506100d6610262565b6040516100e3919061075f565b60405180910390f35b3480156100f857600080fd5b50610113600480360381019061010e91906107ab565b61026a565b60405161012091906107f9565b60405180910390f35b34801561013557600080fd5b5061013e61029d565b60405161014b91906107f9565b60405180910390f35b34801561016057600080fd5b5061017b60048036038101906101769190610840565b6102c1565b005b34801561018957600080fd5b506101a4600480360381019061019f91906107ab565b6103eb565b005b3480156101b257600080fd5b506101cd60048036038101906101c891906107ab565b6105b6565b6040516101da919061075f565b60405180910390f35b6101fd60048036038101906101f891906107ab565b6105ce565b005b34801561020b57600080fd5b50610226600480360381019061022191906107ab565b6106ca565b60405161023391906108ae565b60405180910390f35b600160009054906101000a900473ffffffffffffffffffffffffffffffffffffffff1681565b600047905090565b60046020528060005260406000206000915054906101000a900473ffffffffffffffffffffffffffffffffffffffff1681565b60008054906101000a900473ffffffffffffffffffffffffffffffffffffffff1681565b60008054906101000a900473ffffffffffffffffffffffffffffffffffffffff1673ffffffffffffffffffffffffffffffffffffffff166323b872dd3330866040518463ffffffff1660e01b815260040161031e939291906108c9565b600060405180830381600087803b15801561033857600080fd5b505af115801561034c573d6000803e3d6000fd5b5050505060016002600085815260200190815260200160002060006101000a81548160ff021916908315150217905550816004600085815260200190815260200160002060006101000a81548173ffffffffffffffffffffffffffffffffffffffff021916908373ffffffffffffffffffffffffffffffffffffffff160217905550806003600085815260200190815260200160002081905550505050565b806004600082815260200190815260200160002060009054906101000a900473ffffffffffffffffffffffffffffffffffffffff1673ffffffffffffffffffffffffffffffffffffffff163373ffffffffffffffffffffffffffffffffffffffff161461048d576040517f08c379a000000000000000000000000000000000000000000000000000000000815260040161048490610983565b60405180910390fd5b60036000838152602001908152602001600020544710156104e3576040517f08c379a00000000000000000000000000000000000000000000000000000000081526004016104da906109ef565b60405180910390fd5b6000600160009054906101000a900473ffffffffffffffffffffffffffffffffffffffff1673ffffffffffffffffffffffffffffffffffffffff164760405161052b90610a40565b60006040518083038185875af1925050503d8060008114610568576040519150601f19603f3d011682016040523d82523d6000602084013e61056d565b606091505b50509050806105b1576040517f08c379a00000000000000000000000000000000000000000000000000000000081526004016105a890610aa1565b60405180910390fd5b505050565b60036020528060005260406000206000915090505481565b806004600082815260200190815260200160002060009054906101000a900473ffffffffffffffffffffffffffffffffffffffff1673ffffffffffffffffffffffffffffffffffffffff163373ffffffffffffffffffffffffffffffffffffffff1614610670576040517f08c379a000000000000000000000000000000000000000000000000000000000815260040161066790610983565b60405180910390fd5b60036000838152602001908152602001600020543410156106c6576040517f08c379a00000000000000000000000000000000000000000000000000000000081526004016106bd90610b0d565b60405180910390fd5b5050565b60026020528060005260406000206000915054906101000a900460ff1681565b600073ffffffffffffffffffffffffffffffffffffffff82169050919050565b6000610715826106ea565b9050919050565b6107258161070a565b82525050565b6000602082019050610740600083018461071c565b92915050565b6000819050919050565b61075981610746565b82525050565b60006020820190506107746000830184610750565b92915050565b600080fd5b61078881610746565b811461079357600080fd5b50565b6000813590506107a58161077f565b92915050565b6000602082840312156107c1576107c061077a565b5b60006107cf84828501610796565b91505092915050565b60006107e3826106ea565b9050919050565b6107f3816107d8565b82525050565b600060208201905061080e60008301846107ea565b92915050565b61081d816107d8565b811461082857600080fd5b50565b60008135905061083a81610814565b92915050565b6000806000606084860312156108595761085861077a565b5b600061086786828701610796565b93505060206108788682870161082b565b925050604061088986828701610796565b9150509250925092565b60008115159050919050565b6108a881610893565b82525050565b60006020820190506108c3600083018461089f565b92915050565b60006060820190506108de60008301866107ea565b6108eb60208301856107ea565b6108f86040830184610750565b949350505050565b600082825260208201905092915050565b7f4f6e6c7920627579657220697320616c6c6f77656420746f20646f207468697360008201527f20616374696f6e00000000000000000000000000000000000000000000000000602082015250565b600061096d602783610900565b915061097882610911565b604082019050919050565b6000602082019050818103600083015261099c81610960565b9050919050565b7f496e73756666696369656e742066756e647320746f2066696e616c697a650000600082015250565b60006109d9601e83610900565b91506109e4826109a3565b602082019050919050565b60006020820190508181036000830152610a08816109cc565b9050919050565b600081905092915050565b50565b6000610a2a600083610a0f565b9150610a3582610a1a565b600082019050919050565b6000610a4b82610a1d565b9150819050919050565b7f4661696c656420746f2066696e616c697a65207468652073616c650000000000600082015250565b6000610a8b601b83610900565b9150610a9682610a55565b602082019050919050565b60006020820190508181036000830152610aba81610a7e565b9050919050565b7f496e73756666696369656e742066756e6473206465706f736974656400000000600082015250565b6000610af7601c83610900565b9150610b0282610ac1565b602082019050919050565b60006020820190508181036000830152610b2681610aea565b905091905056fea26469706673582212207cf157c6c951f00c2e87f69888457f6149ad7c18c80e684fef570646d5039b7164736f6c634300081c0033",
  "linkReferences": {},
  "deployedLinkReferences": {}
}