{
  "_format": "hh-sol-artifact-1",
  "contractName": "Escrow",
  "sourceName": "contracts/Escrow.sol",
  "abi": [
    {
      "inputs": [
        {
          "internalType": "address",
          "name": "_nftAddress",
          "type": "address"
        },
        {
          "internalType": "address",
          "name": "_seller",
          "type": "address"
        }
      ],
      "stateMutability": "nonpayable",
      "type": "constructor"
    },
    {
      "inputs": [
        {
          "internalType": "uint256",
          "name": "",
          "type": "uint256"
        }
      ],
      "name": "buyer",
      "outputs": [
        {
          "internalType": "address",
          "name": "",
          "type": "address"
        }
      ],
      "stateMutability": "view",
      "type": "function"
    },
    {
      "inputs": [
        {
          "internalType": "uint256",
          "name": "_nftId",
          "type": "uint256"
        }
      ],
      "name": "depositEarnest",
      "outputs": [],
      "stateMutability": "payable",
      "type": "function"
    },
    {
      "inputs": [
        {
          "internalType": "uint256",
          "name": "",
          "type": "uint256"
        }
      ],
      "name": "escrowAmount",
      "outputs": [
        {
          "internalType": "uint256",
          "name": "",
          "type": "uint256"
        }
      ],
      "stateMutability": "view",
      "type": "function"
    },
    {
      "inputs": [
        {
          "internalType": "uint256",
          "name": "_nftId",
          "type": "uint256"
        }
      ],
      "name": "finalizeSale",
      "outputs": [],
      "stateMutability": "nonpayable",
      "type": "function"
    },
    {
      "inputs": [],
      "name": "getBalance",
      "outputs": [
        {
          "internalType": "uint256",
          "name": "",
          "type": "uint256"
        }
      ],
      "stateMutability": "view",
      "type": "function"
    },
    {
      "inputs": [
        {
          "internalType": "uint256",
          "name": "",
          "type": "uint256"
        }
      ],
      "name": "isListed",
      "outputs": [
        {
          "internalType": "bool",
          "name": "",
          "type": "bool"
        }
      ],
      "stateMutability": "view",
      "type": "function"
    },
    {
      "inputs": [
        {
          "internalType": "uint256",
          "name": "_nftId",
          "type": "uint256"
        },
        {
          "internalType": "address",
          "name": "_buyer",
          "type": "address"
        },
        {
          "internalType": "uint256",
          "name": "_purchaseAmount",
          "type": "uint256"
        },
        {
          "internalType": "uint256",
          "name": "_escrowAmount",
          "type": "uint256"
        }
      ],
      "name": "listProperty",
      "outputs": [],
      "stateMutability": "nonpayable",
      "type": "function"
    },
    {
      "inputs": [],
      "name": "nftAddress",
      "outputs": [
        {
          "internalType": "address",
          "name": "",
          "type": "address"
        }
      ],
      "stateMutability": "view",
      "type": "function"
    },
    {
      "inputs": [
        {
          "internalType": "uint256",
          "name": "",
          "type": "uint256"
        }
      ],
      "name": "purchaseAmount",
      "outputs": [
        {
          "internalType": "uint256",
          "name": "",
          "type": "uint256"
        }
      ],
      "stateMutability": "view",
      "type": "function"
    },
    {
      "inputs": [],
      "name": "seller",
      "outputs": [
        {
          "internalType": "address payable",
          "name": "",
          "type": "address"
        }
      ],
      "stateMutability": "view",
      "type": "function"
    },
    {
      "stateMutability": "payable",
      "type": "receive"
    }
  ],
  "bytecode": "0x608060405234801561001057600080fd5b50604051610d5c380380610d5c8339818101604052810190610032919061011d565b816000806101000a81548173ffffffffffffffffffffffffffffffffffffffff021916908373ffffffffffffffffffffffffffffffffffffffff16021790555080600160006101000a81548173ffffffffffffffffffffffffffffffffffffffff021916908373ffffffffffffffffffffffffffffffffffffffff160217905550505061015d565b600080fd5b600073ffffffffffffffffffffffffffffffffffffffff82169050919050565b60006100ea826100bf565b9050919050565b6100fa816100df565b811461010557600080fd5b50565b600081519050610117816100f1565b92915050565b60008060408385031215610134576101336100ba565b5b600061014285828601610108565b925050602061015385828601610108565b9150509250929050565b610bf08061016c6000396000f3fe6080604052600436106100955760003560e01c80635d19e56c116100595780635d19e56c14610188578063aa929380146101c5578063cc8f0708146101ee578063e740f7701461022b578063fcce4883146102475761009c565b806308551a53146100a157806312065fe0146100cc5780634c631eed146100f75780634dd4acaf146101205780635bf8633a1461015d5761009c565b3661009c57005b600080fd5b3480156100ad57600080fd5b506100b6610284565b6040516100c391906107a4565b60405180910390f35b3480156100d857600080fd5b506100e16102aa565b6040516100ee91906107d8565b60405180910390f35b34801561010357600080fd5b5061011e60048036038101906101199190610862565b6102b2565b005b34801561012c57600080fd5b50610147600480360381019061014291906108c9565b6103f5565b6040516101549190610905565b60405180910390f35b34801561016957600080fd5b50610172610428565b60405161017f9190610905565b60405180910390f35b34801561019457600080fd5b506101af60048036038101906101aa91906108c9565b61044c565b6040516101bc91906107d8565b60405180910390f35b3480156101d157600080fd5b506101ec60048036038101906101e791906108c9565b610464565b005b3480156101fa57600080fd5b50610215600480360381019061021091906108c9565b61062f565b60405161022291906107d8565b60405180910390f35b610245600480360381019061024091906108c9565b610647565b005b34801561025357600080fd5b5061026e600480360381019061026991906108c9565b610743565b60405161027b919061093b565b60405180910390f35b600160009054906101000a900473ffffffffffffffffffffffffffffffffffffffff1681565b600047905090565b60008054906101000a900473ffffffffffffffffffffffffffffffffffffffff1673ffffffffffffffffffffffffffffffffffffffff166323b872dd3330876040518463ffffffff1660e01b815260040161030f93929190610956565b600060405180830381600087803b15801561032957600080fd5b505af115801561033d573d6000803e3d6000fd5b5050505060016002600086815260200190815260200160002060006101000a81548160ff021916908315150217905550826005600086815260200190815260200160002060006101000a81548173ffffffffffffffffffffffffffffffffffffffff021916908373ffffffffffffffffffffffffffffffffffffffff16021790555081600360008681526020019081526020016000208190555080600460008681526020019081526020016000208190555050505050565b60056020528060005260406000206000915054906101000a900473ffffffffffffffffffffffffffffffffffffffff1681565b60008054906101000a900473ffffffffffffffffffffffffffffffffffffffff1681565b60046020528060005260406000206000915090505481565b806005600082815260200190815260200160002060009054906101000a900473ffffffffffffffffffffffffffffffffffffffff1673ffffffffffffffffffffffffffffffffffffffff163373ffffffffffffffffffffffffffffffffffffffff1614610506576040517f08c379a00000000000000000000000000000000000000000000000000000000081526004016104fd90610a10565b60405180910390fd5b600360008381526020019081526020016000205447101561055c576040517f08c379a000000000000000000000000000000000000000000000000000000000815260040161055390610a7c565b60405180910390fd5b6000600160009054906101000a900473ffffffffffffffffffffffffffffffffffffffff1673ffffffffffffffffffffffffffffffffffffffff16476040516105a490610acd565b60006040518083038185875af1925050503d80600081146105e1576040519150601f19603f3d011682016040523d82523d6000602084013e6105e6565b606091505b505090508061062a576040517f08c379a000000000000000000000000000000000000000000000000000000000815260040161062190610b2e565b60405180910390fd5b505050565b60036020528060005260406000206000915090505481565b806005600082815260200190815260200160002060009054906101000a900473ffffffffffffffffffffffffffffffffffffffff1673ffffffffffffffffffffffffffffffffffffffff163373ffffffffffffffffffffffffffffffffffffffff16146106e9576040517f08c379a00000000000000000000000000000000000000000000000000000000081526004016106e090610a10565b60405180910390fd5b600460008381526020019081526020016000205434101561073f576040517f08c379a000000000000000000000000000000000000000000000000000000000815260040161073690610b9a565b60405180910390fd5b5050565b60026020528060005260406000206000915054906101000a900460ff1681565b600073ffffffffffffffffffffffffffffffffffffffff82169050919050565b600061078e82610763565b9050919050565b61079e81610783565b82525050565b60006020820190506107b96000830184610795565b92915050565b6000819050919050565b6107d2816107bf565b82525050565b60006020820190506107ed60008301846107c9565b92915050565b600080fd5b610801816107bf565b811461080c57600080fd5b50565b60008135905061081e816107f8565b92915050565b600061082f82610763565b9050919050565b61083f81610824565b811461084a57600080fd5b50565b60008135905061085c81610836565b92915050565b6000806000806080858703121561087c5761087b6107f3565b5b600061088a8782880161080f565b945050602061089b8782880161084d565b93505060406108ac8782880161080f565b92505060606108bd8782880161080f565b91505092959194509250565b6000602082840312156108df576108de6107f3565b5b60006108ed8482850161080f565b91505092915050565b6108ff81610824565b82525050565b600060208201905061091a60008301846108f6565b92915050565b60008115159050919050565b61093581610920565b82525050565b6000602082019050610950600083018461092c565b92915050565b600060608201905061096b60008301866108f6565b61097860208301856108f6565b61098560408301846107c9565b949350505050565b600082825260208201905092915050565b7f4f6e6c7920627579657220697320616c6c6f77656420746f20646f207468697360008201527f20616374696f6e00000000000000000000000000000000000000000000000000602082015250565b60006109fa60278361098d565b9150610a058261099e565b604082019050919050565b60006020820190508181036000830152610a29816109ed565b9050919050565b7f496e73756666696369656e742066756e647320746f2066696e616c697a650000600082015250565b6000610a66601e8361098d565b9150610a7182610a30565b602082019050919050565b60006020820190508181036000830152610a9581610a59565b9050919050565b600081905092915050565b50565b6000610ab7600083610a9c565b9150610ac282610aa7565b600082019050919050565b6000610ad882610aaa565b9150819050919050565b7f4661696c656420746f2066696e616c697a65207468652073616c650000000000600082015250565b6000610b18601b8361098d565b9150610b2382610ae2565b602082019050919050565b60006020820190508181036000830152610b4781610b0b565b9050919050565b7f496e73756666696369656e74206561726e65737420616d6f756e740000000000600082015250565b6000610b84601b8361098d565b9150610b8f82610b4e565b602082019050919050565b60006020820190508181036000830152610bb381610b77565b905091905056fea26469706673582212204449d36cd89506ff130a722872a1dd889de942022895e2e2d8fadbf2d3f5982b64736f6c634300081c0033",
  "linkReferences": {},
  "deployedLinkReferences": {}
}