{
  "_format": "hh-sol-artifact-1",
  "contractName": "Escrow",
  "sourceName": "contracts/Escrow.sol",
  "abi": [
    {
      "inputs": [
        {
          "internalType": "address",
          "name": "_nftAddress",
          "type": "address"
        }
      ],
      "stateMutability": "nonpayable",
      "type": "constructor"
    },
    {
      "anonymous": false,
      "inputs": [
        {
          "indexed": true,
          "internalType": "uint256",
          "name": "tokenId",
          "type": "uint256"
        },
        {
          "indexed": true,
          "internalType": "address",
          "name": "buyer",
          "type": "address"
        },
        {
          "indexed": false,
          "internalType": "uint256",
          "name": "amount",
          "type": "uint256"
        }
      ],
      "name": "EarnestDeposited",
      "type": "event"
    },
    {
      "anonymous": false,
      "inputs": [
        {
          "indexed": true,
          "internalType": "uint256",
          "name": "tokenId",
          "type": "uint256"
        },
        {
          "indexed": true,
          "internalType": "address",
          "name": "buyer",
          "type": "address"
        },
        {
          "indexed": true,
          "internalType": "address",
          "name": "seller",
          "type": "address"
        },
        {
          "indexed": false,
          "internalType": "uint256",
          "name": "price",
          "type": "uint256"
        }
      ],
      "name": "Finalized",
      "type": "event"
    },
    {
      "anonymous": false,
      "inputs": [
        {
          "indexed": true,
          "internalType": "uint256",
          "name": "tokenId",
          "type": "uint256"
        },
        {
          "indexed": true,
          "internalType": "address",
          "name": "seller",
          "type": "address"
        },
        {
          "indexed": false,
          "internalType": "uint256",
          "name": "price",
          "type": "uint256"
        }
      ],
      "name": "Listed",
      "type": "event"
    },
    {
      "anonymous": false,
      "inputs": [
        {
          "indexed": true,
          "internalType": "uint256",
          "name": "tokenId",
          "type": "uint256"
        },
        {
          "indexed": true,
          "internalType": "address",
          "name": "seller",
          "type": "address"
        }
      ],
      "name": "ListingCancelled",
      "type": "event"
    },
    {
      "stateMutability": "payable",
      "type": "fallback"
    },
    {
      "inputs": [
        {
          "internalType": "uint256",
          "name": "",
          "type": "uint256"
        }
      ],
      "name": "buyer",
      "outputs": [
        {
          "internalType": "address",
          "name": "",
          "type": "address"
        }
      ],
      "stateMutability": "view",
      "type": "function"
    },
    {
      "inputs": [
        {
          "internalType": "uint256",
          "name": "_nftId",
          "type": "uint256"
        }
      ],
      "name": "cancelListing",
      "outputs": [],
      "stateMutability": "nonpayable",
      "type": "function"
    },
    {
      "inputs": [
        {
          "internalType": "uint256",
          "name": "_nftId",
          "type": "uint256"
        }
      ],
      "name": "depositEarnest",
      "outputs": [],
      "stateMutability": "payable",
      "type": "function"
    },
    {
      "inputs": [
        {
          "internalType": "uint256",
          "name": "",
          "type": "uint256"
        }
      ],
      "name": "escrowDeposits",
      "outputs": [
        {
          "internalType": "uint256",
          "name": "",
          "type": "uint256"
        }
      ],
      "stateMutability": "view",
      "type": "function"
    },
    {
      "inputs": [
        {
          "internalType": "uint256",
          "name": "_nftId",
          "type": "uint256"
        }
      ],
      "name": "finalizeSale",
      "outputs": [],
      "stateMutability": "nonpayable",
      "type": "function"
    },
    {
      "inputs": [],
      "name": "getAllListings",
      "outputs": [
        {
          "internalType": "uint256[]",
          "name": "ids",
          "type": "uint256[]"
        },
        {
          "internalType": "address[]",
          "name": "sellers",
          "type": "address[]"
        },
        {
          "internalType": "uint256[]",
          "name": "prices",
          "type": "uint256[]"
        },
        {
          "internalType": "bool[]",
          "name": "listed",
          "type": "bool[]"
        }
      ],
      "stateMutability": "view",
      "type": "function"
    },
    {
      "inputs": [],
      "name": "getBalance",
      "outputs": [
        {
          "internalType": "uint256",
          "name": "",
          "type": "uint256"
        }
      ],
      "stateMutability": "view",
      "type": "function"
    },
    {
      "inputs": [],
      "name": "getListedIds",
      "outputs": [
        {
          "internalType": "uint256[]",
          "name": "",
          "type": "uint256[]"
        }
      ],
      "stateMutability": "view",
      "type": "function"
    },
    {
      "inputs": [
        {
          "internalType": "address",
          "name": "_user",
          "type": "address"
        }
      ],
      "name": "getPurchasedNfts",
      "outputs": [
        {
          "internalType": "uint256[]",
          "name": "",
          "type": "uint256[]"
        }
      ],
      "stateMutability": "view",
      "type": "function"
    },
    {
      "inputs": [
        {
          "internalType": "address",
          "name": "_user",
          "type": "address"
        }
      ],
      "name": "getSoldNfts",
      "outputs": [
        {
          "internalType": "uint256[]",
          "name": "",
          "type": "uint256[]"
        }
      ],
      "stateMutability": "view",
      "type": "function"
    },
    {
      "inputs": [
        {
          "internalType": "uint256",
          "name": "",
          "type": "uint256"
        }
      ],
      "name": "isListed",
      "outputs": [
        {
          "internalType": "bool",
          "name": "",
          "type": "bool"
        }
      ],
      "stateMutability": "view",
      "type": "function"
    },
    {
      "inputs": [
        {
          "internalType": "uint256",
          "name": "_nftId",
          "type": "uint256"
        },
        {
          "internalType": "uint256",
          "name": "_purchaseAmount",
          "type": "uint256"
        }
      ],
      "name": "listProperty",
      "outputs": [],
      "stateMutability": "nonpayable",
      "type": "function"
    },
    {
      "inputs": [],
      "name": "nftAddress",
      "outputs": [
        {
          "internalType": "address",
          "name": "",
          "type": "address"
        }
      ],
      "stateMutability": "view",
      "type": "function"
    },
    {
      "inputs": [
        {
          "internalType": "uint256",
          "name": "",
          "type": "uint256"
        }
      ],
      "name": "purchaseAmount",
      "outputs": [
        {
          "internalType": "uint256",
          "name": "",
          "type": "uint256"
        }
      ],
      "stateMutability": "view",
      "type": "function"
    },
    {
      "inputs": [
        {
          "internalType": "uint256",
          "name": "",
          "type": "uint256"
        }
      ],
      "name": "sellerOf",
      "outputs": [
        {
          "internalType": "address payable",
          "name": "",
          "type": "address"
        }
      ],
      "stateMutability": "view",
      "type": "function"
    },
    {
      "stateMutability": "payable",
      "type": "receive"
    }
  ],
  "bytecode": "0x608060405234801561001057600080fd5b50604051612786380380612786833981810160405281019061003291906100db565b806000806101000a81548173ffffffffffffffffffffffffffffffffffffffff021916908373ffffffffffffffffffffffffffffffffffffffff16021790555050610108565b600080fd5b600073ffffffffffffffffffffffffffffffffffffffff82169050919050565b60006100a88261007d565b9050919050565b6100b88161009d565b81146100c357600080fd5b50565b6000815190506100d5816100af565b92915050565b6000602082840312156100f1576100f0610078565b5b60006100ff848285016100c6565b91505092915050565b61266f806101176000396000f3fe6080604052600436106100ec5760003560e01c806353fa80c31161008a578063cc8f070811610059578063cc8f070814610385578063e05c5a83146103c2578063e740f770146103ff578063fcce48831461041b5761012c565b806353fa80c3146102c65780635bf8633a14610303578063aa9293801461032e578063ae73ccec146103575761012c565b8063305a67a8116100c6578063305a67a8146101fa57806340c14370146102235780634dd4acaf146102605780634eda529b1461029d5761012c565b806305337198146101675780630b2034151461019257806312065fe0146101cf5761012c565b3661012c576040517f08c379a0000000000000000000000000000000000000000000000000000000008152600401610123906119ae565b60405180910390fd5b6040517f08c379a000000000000000000000000000000000000000000000000000000000815260040161015e90611a1a565b60405180910390fd5b34801561017357600080fd5b5061017c610458565b6040516101899190611b02565b60405180910390f35b34801561019e57600080fd5b506101b960048036038101906101b49190611b87565b6104b0565b6040516101c69190611b02565b60405180910390f35b3480156101db57600080fd5b506101e4610547565b6040516101f19190611bc3565b60405180910390f35b34801561020657600080fd5b50610221600480360381019061021c9190611c0a565b61054f565b005b34801561022f57600080fd5b5061024a60048036038101906102459190611b87565b6109b0565b6040516102579190611b02565b60405180910390f35b34801561026c57600080fd5b5061028760048036038101906102829190611c0a565b610a47565b6040516102949190611c46565b60405180910390f35b3480156102a957600080fd5b506102c460048036038101906102bf9190611c61565b610a7a565b005b3480156102d257600080fd5b506102ed60048036038101906102e89190611c0a565b610de9565b6040516102fa9190611bc3565b60405180910390f35b34801561030f57600080fd5b50610318610e01565b6040516103259190611c46565b60405180910390f35b34801561033a57600080fd5b5061035560048036038101906103509190611c0a565b610e25565b005b34801561036357600080fd5b5061036c61139a565b60405161037c9493929190611e29565b60405180910390f35b34801561039157600080fd5b506103ac60048036038101906103a79190611c0a565b611634565b6040516103b99190611bc3565b60405180910390f35b3480156103ce57600080fd5b506103e960048036038101906103e49190611c0a565b61164c565b6040516103f69190611eab565b60405180910390f35b61041960048036038101906104149190611c0a565b61167f565b005b34801561042757600080fd5b50610442600480360381019061043d9190611c0a565b611803565b60405161044f9190611ed5565b60405180910390f35b606060088054806020026020016040519081016040528092919081815260200182805480156104a657602002820191906000526020600020905b815481526020019060010190808311610492575b5050505050905090565b6060600760008373ffffffffffffffffffffffffffffffffffffffff1673ffffffffffffffffffffffffffffffffffffffff16815260200190815260200160002080548060200260200160405190810160405280929190818152602001828054801561053b57602002820191906000526020600020905b815481526020019060010190808311610527575b50505050509050919050565b600047905090565b806004600082815260200190815260200160002060009054906101000a900473ffffffffffffffffffffffffffffffffffffffff1673ffffffffffffffffffffffffffffffffffffffff163373ffffffffffffffffffffffffffffffffffffffff16146105f1576040517f08c379a00000000000000000000000000000000000000000000000000000000081526004016105e890611f62565b60405180910390fd5b6001600083815260200190815260200160002060009054906101000a900460ff16610651576040517f08c379a000000000000000000000000000000000000000000000000000000000815260040161064890611fce565b60405180910390fd5b60006004600084815260200190815260200160002060009054906101000a900473ffffffffffffffffffffffffffffffffffffffff16905060006003600085815260200190815260200160002060009054906101000a900473ffffffffffffffffffffffffffffffffffffffff16905060006005600086815260200190815260200160002054905060006001600087815260200190815260200160002060006101000a81548160ff0219169083151502179055506000600260008781526020019081526020016000208190555060006003600087815260200190815260200160002060006101000a81548173ffffffffffffffffffffffffffffffffffffffff021916908373ffffffffffffffffffffffffffffffffffffffff16021790555060006004600087815260200190815260200160002060006101000a81548173ffffffffffffffffffffffffffffffffffffffff021916908373ffffffffffffffffffffffffffffffffffffffff160217905550600060056000878152602001908152602001600020819055506107e685611823565b60008054906101000a900473ffffffffffffffffffffffffffffffffffffffff1673ffffffffffffffffffffffffffffffffffffffff166323b872dd3085886040518463ffffffff1660e01b81526004016108439392919061204d565b600060405180830381600087803b15801561085d57600080fd5b505af1158015610871573d6000803e3d6000fd5b505050506000811180156108b25750600073ffffffffffffffffffffffffffffffffffffffff168273ffffffffffffffffffffffffffffffffffffffff1614155b156109655760008273ffffffffffffffffffffffffffffffffffffffff16826040516108dd906120b5565b60006040518083038185875af1925050503d806000811461091a576040519150601f19603f3d011682016040523d82523d6000602084013e61091f565b606091505b5050905080610963576040517f08c379a000000000000000000000000000000000000000000000000000000000815260040161095a90612116565b60405180910390fd5b505b8273ffffffffffffffffffffffffffffffffffffffff16857f8e25282255ab31897df2b0456bb993ac7f84d376861aefd84901d2d63a7428a260405160405180910390a35050505050565b6060600660008373ffffffffffffffffffffffffffffffffffffffff1673ffffffffffffffffffffffffffffffffffffffff168152602001908152602001600020805480602002602001604051908101604052809291908181526020018280548015610a3b57602002820191906000526020600020905b815481526020019060010190808311610a27575b50505050509050919050565b60036020528060005260406000206000915054906101000a900473ffffffffffffffffffffffffffffffffffffffff1681565b6001600083815260200190815260200160002060009054906101000a900460ff1615610adb576040517f08c379a0000000000000000000000000000000000000000000000000000000008152600401610ad290612182565b60405180910390fd5b60008060009054906101000a900473ffffffffffffffffffffffffffffffffffffffff1673ffffffffffffffffffffffffffffffffffffffff16636352211e846040518263ffffffff1660e01b8152600401610b379190611bc3565b602060405180830381865afa158015610b54573d6000803e3d6000fd5b505050506040513d601f19601f82011682018060405250810190610b7891906121b7565b90503373ffffffffffffffffffffffffffffffffffffffff168173ffffffffffffffffffffffffffffffffffffffff1614610be8576040517f08c379a0000000000000000000000000000000000000000000000000000000008152600401610bdf90612256565b60405180910390fd5b60008211610c2b576040517f08c379a0000000000000000000000000000000000000000000000000000000008152600401610c22906122e8565b60405180910390fd5b60008054906101000a900473ffffffffffffffffffffffffffffffffffffffff1673ffffffffffffffffffffffffffffffffffffffff166323b872dd3330866040518463ffffffff1660e01b8152600401610c8893929190612308565b600060405180830381600087803b158015610ca257600080fd5b505af1158015610cb6573d6000803e3d6000fd5b50505050600180600085815260200190815260200160002060006101000a81548160ff021916908315150217905550816002600085815260200190815260200160002081905550336004600085815260200190815260200160002060006101000a81548173ffffffffffffffffffffffffffffffffffffffff021916908373ffffffffffffffffffffffffffffffffffffffff160217905550600883908060018154018082558091505060019003906000526020600020016000909190919091505560088054905060096000858152602001908152602001600020819055503373ffffffffffffffffffffffffffffffffffffffff16837f50955776c5778c3b7d968d86d8c51fb6b29a7a74c20866b533268e209fc0834384604051610ddc9190611bc3565b60405180910390a3505050565b60056020528060005260406000206000915090505481565b60008054906101000a900473ffffffffffffffffffffffffffffffffffffffff1681565b806003600082815260200190815260200160002060009054906101000a900473ffffffffffffffffffffffffffffffffffffffff1673ffffffffffffffffffffffffffffffffffffffff163373ffffffffffffffffffffffffffffffffffffffff1614610ec7576040517f08c379a0000000000000000000000000000000000000000000000000000000008152600401610ebe906123b1565b60405180910390fd5b6001600083815260200190815260200160002060009054906101000a900460ff16610f27576040517f08c379a0000000000000000000000000000000000000000000000000000000008152600401610f1e9061241d565b60405180910390fd5b600260008381526020019081526020016000205460056000848152602001908152602001600020541015610f90576040517f08c379a0000000000000000000000000000000000000000000000000000000008152600401610f8790612489565b60405180910390fd5b60006004600084815260200190815260200160002060009054906101000a900473ffffffffffffffffffffffffffffffffffffffff16905060006003600085815260200190815260200160002060009054906101000a900473ffffffffffffffffffffffffffffffffffffffff169050600060056000868152602001908152602001600020549050600660008373ffffffffffffffffffffffffffffffffffffffff1673ffffffffffffffffffffffffffffffffffffffff168152602001908152602001600020859080600181540180825580915050600190039060005260206000200160009091909190915055600760008473ffffffffffffffffffffffffffffffffffffffff1673ffffffffffffffffffffffffffffffffffffffff16815260200190815260200160002085908060018154018082558091505060019003906000526020600020016000909190919091505560006001600087815260200190815260200160002060006101000a81548160ff0219169083151502179055506000600260008781526020019081526020016000208190555060006003600087815260200190815260200160002060006101000a81548173ffffffffffffffffffffffffffffffffffffffff021916908373ffffffffffffffffffffffffffffffffffffffff16021790555060006004600087815260200190815260200160002060006101000a81548173ffffffffffffffffffffffffffffffffffffffff021916908373ffffffffffffffffffffffffffffffffffffffff160217905550600060056000878152602001908152602001600020819055506111f185611823565b60008373ffffffffffffffffffffffffffffffffffffffff1682604051611217906120b5565b60006040518083038185875af1925050503d8060008114611254576040519150601f19603f3d011682016040523d82523d6000602084013e611259565b606091505b505090508061129d576040517f08c379a0000000000000000000000000000000000000000000000000000000008152600401611294906124f5565b60405180910390fd5b60008054906101000a900473ffffffffffffffffffffffffffffffffffffffff1673ffffffffffffffffffffffffffffffffffffffff166323b872dd3085896040518463ffffffff1660e01b81526004016112fa93929190612308565b600060405180830381600087803b15801561131457600080fd5b505af1158015611328573d6000803e3d6000fd5b505050508373ffffffffffffffffffffffffffffffffffffffff168373ffffffffffffffffffffffffffffffffffffffff16877fbab9b8cf33aeb37546eb59bbfc398d72030e13c66fb2cacd48a0b2a77b1ec46c8560405161138a9190611bc3565b60405180910390a4505050505050565b606080606080600060088054905090508067ffffffffffffffff8111156113c4576113c3612515565b5b6040519080825280602002602001820160405280156113f25781602001602082028036833780820191505090505b5094508067ffffffffffffffff81111561140f5761140e612515565b5b60405190808252806020026020018201604052801561143d5781602001602082028036833780820191505090505b5093508067ffffffffffffffff81111561145a57611459612515565b5b6040519080825280602002602001820160405280156114885781602001602082028036833780820191505090505b5092508067ffffffffffffffff8111156114a5576114a4612515565b5b6040519080825280602002602001820160405280156114d35781602001602082028036833780820191505090505b50915060005b8181101561162c576000600882815481106114f7576114f6612544565b5b906000526020600020015490508087838151811061151857611517612544565b5b6020026020010181815250506004600082815260200190815260200160002060009054906101000a900473ffffffffffffffffffffffffffffffffffffffff1686838151811061156b5761156a612544565b5b602002602001019073ffffffffffffffffffffffffffffffffffffffff16908173ffffffffffffffffffffffffffffffffffffffff168152505060026000828152602001908152602001600020548583815181106115cc576115cb612544565b5b6020026020010181815250506001600082815260200190815260200160002060009054906101000a900460ff1684838151811061160c5761160b612544565b5b6020026020010190151590811515815250505080806001019150506114d9565b505090919293565b60026020528060005260406000206000915090505481565b60046020528060005260406000206000915054906101000a900473ffffffffffffffffffffffffffffffffffffffff1681565b6001600082815260200190815260200160002060009054906101000a900460ff166116df576040517f08c379a00000000000000000000000000000000000000000000000000000000081526004016116d690611fce565b60405180910390fd5b6002600082815260200190815260200160002054341015611735576040517f08c379a000000000000000000000000000000000000000000000000000000000815260040161172c90612489565b60405180910390fd5b336003600083815260200190815260200160002060006101000a81548173ffffffffffffffffffffffffffffffffffffffff021916908373ffffffffffffffffffffffffffffffffffffffff160217905550346005600083815260200190815260200160002060008282546117aa91906125a2565b925050819055503373ffffffffffffffffffffffffffffffffffffffff16817f7c6d91bd901e72cb2ba49f5796f5074c109048279c102fe97894cfe1891613c5346040516117f89190611bc3565b60405180910390a350565b60016020528060005260406000206000915054906101000a900460ff1681565b600060096000838152602001908152602001600020549050600081036118495750611928565b600060018261185891906125d6565b90506000600160088054905061186e91906125d6565b90508082146118e35760006008828154811061188d5761188c612544565b5b9060005260206000200154905080600884815481106118af576118ae612544565b5b90600052602060002001819055506001836118ca91906125a2565b6009600083815260200190815260200160002081905550505b60088054806118f5576118f461260a565b5b60019003818190600052602060002001600090559055600060096000868152602001908152602001600020819055505050505b50565b600082825260208201905092915050565b7f446972656374206465706f73697473206e6f7420616c6c6f7765643b2075736560008201527f206465706f7369744561726e6573740000000000000000000000000000000000602082015250565b6000611998602f8361192b565b91506119a38261193c565b604082019050919050565b600060208201905081810360008301526119c78161198b565b9050919050565b7f46616c6c6261636b206e6f7420616c6c6f776564000000000000000000000000600082015250565b6000611a0460148361192b565b9150611a0f826119ce565b602082019050919050565b60006020820190508181036000830152611a33816119f7565b9050919050565b600081519050919050565b600082825260208201905092915050565b6000819050602082019050919050565b6000819050919050565b611a7981611a66565b82525050565b6000611a8b8383611a70565b60208301905092915050565b6000602082019050919050565b6000611aaf82611a3a565b611ab98185611a45565b9350611ac483611a56565b8060005b83811015611af5578151611adc8882611a7f565b9750611ae783611a97565b925050600181019050611ac8565b5085935050505092915050565b60006020820190508181036000830152611b1c8184611aa4565b905092915050565b600080fd5b600073ffffffffffffffffffffffffffffffffffffffff82169050919050565b6000611b5482611b29565b9050919050565b611b6481611b49565b8114611b6f57600080fd5b50565b600081359050611b8181611b5b565b92915050565b600060208284031215611b9d57611b9c611b24565b5b6000611bab84828501611b72565b91505092915050565b611bbd81611a66565b82525050565b6000602082019050611bd86000830184611bb4565b92915050565b611be781611a66565b8114611bf257600080fd5b50565b600081359050611c0481611bde565b92915050565b600060208284031215611c2057611c1f611b24565b5b6000611c2e84828501611bf5565b91505092915050565b611c4081611b49565b82525050565b6000602082019050611c5b6000830184611c37565b92915050565b60008060408385031215611c7857611c77611b24565b5b6000611c8685828601611bf5565b9250506020611c9785828601611bf5565b9150509250929050565b600081519050919050565b600082825260208201905092915050565b6000819050602082019050919050565b611cd681611b49565b82525050565b6000611ce88383611ccd565b60208301905092915050565b6000602082019050919050565b6000611d0c82611ca1565b611d168185611cac565b9350611d2183611cbd565b8060005b83811015611d52578151611d398882611cdc565b9750611d4483611cf4565b925050600181019050611d25565b5085935050505092915050565b600081519050919050565b600082825260208201905092915050565b6000819050602082019050919050565b60008115159050919050565b611da081611d8b565b82525050565b6000611db28383611d97565b60208301905092915050565b6000602082019050919050565b6000611dd682611d5f565b611de08185611d6a565b9350611deb83611d7b565b8060005b83811015611e1c578151611e038882611da6565b9750611e0e83611dbe565b925050600181019050611def565b5085935050505092915050565b60006080820190508181036000830152611e438187611aa4565b90508181036020830152611e578186611d01565b90508181036040830152611e6b8185611aa4565b90508181036060830152611e7f8184611dcb565b905095945050505050565b6000611e9582611b29565b9050919050565b611ea581611e8a565b82525050565b6000602082019050611ec06000830184611e9c565b92915050565b611ecf81611d8b565b82525050565b6000602082019050611eea6000830184611ec6565b92915050565b7f4f6e6c792073656c6c657220697320616c6c6f77656420746f20646f2074686960008201527f7320616374696f6e000000000000000000000000000000000000000000000000602082015250565b6000611f4c60288361192b565b9150611f5782611ef0565b604082019050919050565b60006020820190508181036000830152611f7b81611f3f565b9050919050565b7f4e4654206e6f74206c6973746564000000000000000000000000000000000000600082015250565b6000611fb8600e8361192b565b9150611fc382611f82565b602082019050919050565b60006020820190508181036000830152611fe781611fab565b9050919050565b6000819050919050565b600061201361200e61200984611b29565b611fee565b611b29565b9050919050565b600061202582611ff8565b9050919050565b60006120378261201a565b9050919050565b6120478161202c565b82525050565b60006060820190506120626000830186611c37565b61206f602083018561203e565b61207c6040830184611bb4565b949350505050565b600081905092915050565b50565b600061209f600083612084565b91506120aa8261208f565b600082019050919050565b60006120c082612092565b9150819050919050565b7f526566756e6420746f206275796572206661696c656400000000000000000000600082015250565b600061210060168361192b565b915061210b826120ca565b602082019050919050565b6000602082019050818103600083015261212f816120f3565b9050919050565b7f416c7265616479206c6973746564000000000000000000000000000000000000600082015250565b600061216c600e8361192b565b915061217782612136565b602082019050919050565b6000602082019050818103600083015261219b8161215f565b9050919050565b6000815190506121b181611b5b565b92915050565b6000602082840312156121cd576121cc611b24565b5b60006121db848285016121a2565b91505092915050565b7f4f6e6c7920746f6b656e206f776e6572732061726520616c6c6f77656420746f60008201527f206c697374000000000000000000000000000000000000000000000000000000602082015250565b600061224060258361192b565b915061224b826121e4565b604082019050919050565b6000602082019050818103600083015261226f81612233565b9050919050565b7f507572636861736520616d6f756e74206d75737420626520677265617465722060008201527f7468616e20300000000000000000000000000000000000000000000000000000602082015250565b60006122d260268361192b565b91506122dd82612276565b604082019050919050565b60006020820190508181036000830152612301816122c5565b9050919050565b600060608201905061231d6000830186611c37565b61232a6020830185611c37565b6123376040830184611bb4565b949350505050565b7f4f6e6c7920627579657220697320616c6c6f77656420746f20646f207468697360008201527f20616374696f6e00000000000000000000000000000000000000000000000000602082015250565b600061239b60278361192b565b91506123a68261233f565b604082019050919050565b600060208201905081810360008301526123ca8161238e565b9050919050565b7f4e4654206973206e6f74206c6973746564000000000000000000000000000000600082015250565b600061240760118361192b565b9150612412826123d1565b602082019050919050565b60006020820190508181036000830152612436816123fa565b9050919050565b7f496e73756666696369656e742066756e6473206465706f736974656400000000600082015250565b6000612473601c8361192b565b915061247e8261243d565b602082019050919050565b600060208201905081810360008301526124a281612466565b9050919050565b7f4661696c656420746f2066696e616c697a65207468652073616c650000000000600082015250565b60006124df601b8361192b565b91506124ea826124a9565b602082019050919050565b6000602082019050818103600083015261250e816124d2565b9050919050565b7f4e487b7100000000000000000000000000000000000000000000000000000000600052604160045260246000fd5b7f4e487b7100000000000000000000000000000000000000000000000000000000600052603260045260246000fd5b7f4e487b7100000000000000000000000000000000000000000000000000000000600052601160045260246000fd5b60006125ad82611a66565b91506125b883611a66565b92508282019050808211156125d0576125cf612573565b5b92915050565b60006125e182611a66565b91506125ec83611a66565b925082820390508181111561260457612603612573565b5b92915050565b7f4e487b7100000000000000000000000000000000000000000000000000000000600052603160045260246000fdfea26469706673582212208f88a8e4a43aace215364d953c376764d9dbcec5cdcb7e07eb9cdea52062ce7c64736f6c634300081c0033",
  "linkReferences": {},
  "deployedLinkReferences": {}
}