{
  "_format": "hh-sol-artifact-1",
  "contractName": "Escrow",
  "sourceName": "contracts/Escrow.sol",
  "abi": [
    {
      "inputs": [
        {
          "internalType": "address",
          "name": "_nftAddress",
          "type": "address"
        },
        {
          "internalType": "address",
          "name": "_seller",
          "type": "address"
        },
        {
          "internalType": "address",
          "name": "_lender",
          "type": "address"
        }
      ],
      "stateMutability": "nonpayable",
      "type": "constructor"
    },
    {
      "inputs": [
        {
          "internalType": "uint256",
          "name": "",
          "type": "uint256"
        }
      ],
      "name": "buyer",
      "outputs": [
        {
          "internalType": "address",
          "name": "",
          "type": "address"
        }
      ],
      "stateMutability": "view",
      "type": "function"
    },
    {
      "inputs": [
        {
          "internalType": "uint256",
          "name": "_nftId",
          "type": "uint256"
        }
      ],
      "name": "depositEarnest",
      "outputs": [],
      "stateMutability": "payable",
      "type": "function"
    },
    {
      "inputs": [
        {
          "internalType": "uint256",
          "name": "",
          "type": "uint256"
        }
      ],
      "name": "escrowAmount",
      "outputs": [
        {
          "internalType": "uint256",
          "name": "",
          "type": "uint256"
        }
      ],
      "stateMutability": "view",
      "type": "function"
    },
    {
      "inputs": [
        {
          "internalType": "uint256",
          "name": "_nftId",
          "type": "uint256"
        }
      ],
      "name": "finalizeSale",
      "outputs": [],
      "stateMutability": "nonpayable",
      "type": "function"
    },
    {
      "inputs": [],
      "name": "getBalance",
      "outputs": [
        {
          "internalType": "uint256",
          "name": "",
          "type": "uint256"
        }
      ],
      "stateMutability": "view",
      "type": "function"
    },
    {
      "inputs": [
        {
          "internalType": "uint256",
          "name": "",
          "type": "uint256"
        }
      ],
      "name": "isListed",
      "outputs": [
        {
          "internalType": "bool",
          "name": "",
          "type": "bool"
        }
      ],
      "stateMutability": "view",
      "type": "function"
    },
    {
      "inputs": [],
      "name": "lender",
      "outputs": [
        {
          "internalType": "address",
          "name": "",
          "type": "address"
        }
      ],
      "stateMutability": "view",
      "type": "function"
    },
    {
      "inputs": [
        {
          "internalType": "uint256",
          "name": "_nftId",
          "type": "uint256"
        },
        {
          "internalType": "address",
          "name": "_buyer",
          "type": "address"
        },
        {
          "internalType": "uint256",
          "name": "_purchaseAmount",
          "type": "uint256"
        },
        {
          "internalType": "uint256",
          "name": "_escrowAmount",
          "type": "uint256"
        }
      ],
      "name": "listProperty",
      "outputs": [],
      "stateMutability": "nonpayable",
      "type": "function"
    },
    {
      "inputs": [],
      "name": "nftAddress",
      "outputs": [
        {
          "internalType": "address",
          "name": "",
          "type": "address"
        }
      ],
      "stateMutability": "view",
      "type": "function"
    },
    {
      "inputs": [
        {
          "internalType": "uint256",
          "name": "",
          "type": "uint256"
        }
      ],
      "name": "purchaseAmount",
      "outputs": [
        {
          "internalType": "uint256",
          "name": "",
          "type": "uint256"
        }
      ],
      "stateMutability": "view",
      "type": "function"
    },
    {
      "inputs": [],
      "name": "seller",
      "outputs": [
        {
          "internalType": "address payable",
          "name": "",
          "type": "address"
        }
      ],
      "stateMutability": "view",
      "type": "function"
    },
    {
      "stateMutability": "payable",
      "type": "receive"
    }
  ],
  "bytecode": "0x608060405234801561001057600080fd5b50604051610bb3380380610bb38339818101604052810190610032919061015f565b826000806101000a81548173ffffffffffffffffffffffffffffffffffffffff021916908373ffffffffffffffffffffffffffffffffffffffff16021790555081600160006101000a81548173ffffffffffffffffffffffffffffffffffffffff021916908373ffffffffffffffffffffffffffffffffffffffff16021790555080600260006101000a81548173ffffffffffffffffffffffffffffffffffffffff021916908373ffffffffffffffffffffffffffffffffffffffff1602179055505050506101b2565b600080fd5b600073ffffffffffffffffffffffffffffffffffffffff82169050919050565b600061012c82610101565b9050919050565b61013c81610121565b811461014757600080fd5b50565b60008151905061015981610133565b92915050565b600080600060608486031215610178576101776100fc565b5b60006101868682870161014a565b93505060206101978682870161014a565b92505060406101a88682870161014a565b9150509250925092565b6109f2806101c16000396000f3fe6080604052600436106100a05760003560e01c80635d19e56c116100645780635d19e56c14610193578063aa929380146101d0578063bcead63e146101f9578063cc8f070814610224578063e740f77014610261578063fcce48831461027d576100a7565b806308551a53146100ac57806312065fe0146100d75780634c631eed146101025780634dd4acaf1461012b5780635bf8633a14610168576100a7565b366100a757005b600080fd5b3480156100b857600080fd5b506100c16102ba565b6040516100ce9190610710565b60405180910390f35b3480156100e357600080fd5b506100ec6102e0565b6040516100f99190610744565b60405180910390f35b34801561010e57600080fd5b50610129600480360381019061012491906107ce565b6102e8565b005b34801561013757600080fd5b50610152600480360381019061014d9190610835565b61042b565b60405161015f9190610871565b60405180910390f35b34801561017457600080fd5b5061017d61045e565b60405161018a9190610871565b60405180910390f35b34801561019f57600080fd5b506101ba60048036038101906101b59190610835565b610482565b6040516101c79190610744565b60405180910390f35b3480156101dc57600080fd5b506101f760048036038101906101f29190610835565b61049a565b005b34801561020557600080fd5b5061020e61064e565b60405161021b9190610871565b60405180910390f35b34801561023057600080fd5b5061024b60048036038101906102469190610835565b610674565b6040516102589190610744565b60405180910390f35b61027b60048036038101906102769190610835565b61068c565b005b34801561028957600080fd5b506102a4600480360381019061029f9190610835565b6106af565b6040516102b191906108a7565b60405180910390f35b600160009054906101000a900473ffffffffffffffffffffffffffffffffffffffff1681565b600047905090565b60008054906101000a900473ffffffffffffffffffffffffffffffffffffffff1673ffffffffffffffffffffffffffffffffffffffff166323b872dd3330876040518463ffffffff1660e01b8152600401610345939291906108c2565b600060405180830381600087803b15801561035f57600080fd5b505af1158015610373573d6000803e3d6000fd5b5050505060016003600086815260200190815260200160002060006101000a81548160ff021916908315150217905550826006600086815260200190815260200160002060006101000a81548173ffffffffffffffffffffffffffffffffffffffff021916908373ffffffffffffffffffffffffffffffffffffffff16021790555081600460008681526020019081526020016000208190555080600560008681526020019081526020016000208190555050505050565b60066020528060005260406000206000915054906101000a900473ffffffffffffffffffffffffffffffffffffffff1681565b60008054906101000a900473ffffffffffffffffffffffffffffffffffffffff1681565b60056020528060005260406000206000915090505481565b60046000828152602001908152602001600020544710156104ba57600080fd5b6000600160009054906101000a900473ffffffffffffffffffffffffffffffffffffffff1673ffffffffffffffffffffffffffffffffffffffff16476040516105029061092a565b60006040518083038185875af1925050503d806000811461053f576040519150601f19603f3d011682016040523d82523d6000602084013e610544565b606091505b5050905080610588576040517f08c379a000000000000000000000000000000000000000000000000000000000815260040161057f9061099c565b60405180910390fd5b60008054906101000a900473ffffffffffffffffffffffffffffffffffffffff1673ffffffffffffffffffffffffffffffffffffffff166323b872dd306006600086815260200190815260200160002060009054906101000a900473ffffffffffffffffffffffffffffffffffffffff16856040518463ffffffff1660e01b8152600401610618939291906108c2565b600060405180830381600087803b15801561063257600080fd5b505af1158015610646573d6000803e3d6000fd5b505050505050565b600260009054906101000a900473ffffffffffffffffffffffffffffffffffffffff1681565b60046020528060005260406000206000915090505481565b60056000828152602001908152602001600020543410156106ac57600080fd5b50565b60036020528060005260406000206000915054906101000a900460ff1681565b600073ffffffffffffffffffffffffffffffffffffffff82169050919050565b60006106fa826106cf565b9050919050565b61070a816106ef565b82525050565b60006020820190506107256000830184610701565b92915050565b6000819050919050565b61073e8161072b565b82525050565b60006020820190506107596000830184610735565b92915050565b600080fd5b61076d8161072b565b811461077857600080fd5b50565b60008135905061078a81610764565b92915050565b600061079b826106cf565b9050919050565b6107ab81610790565b81146107b657600080fd5b50565b6000813590506107c8816107a2565b92915050565b600080600080608085870312156107e8576107e761075f565b5b60006107f68782880161077b565b9450506020610807878288016107b9565b93505060406108188782880161077b565b92505060606108298782880161077b565b91505092959194509250565b60006020828403121561084b5761084a61075f565b5b60006108598482850161077b565b91505092915050565b61086b81610790565b82525050565b60006020820190506108866000830184610862565b92915050565b60008115159050919050565b6108a18161088c565b82525050565b60006020820190506108bc6000830184610898565b92915050565b60006060820190506108d76000830186610862565b6108e46020830185610862565b6108f16040830184610735565b949350505050565b600081905092915050565b50565b60006109146000836108f9565b915061091f82610904565b600082019050919050565b600061093582610907565b9150819050919050565b600082825260208201905092915050565b7f4661696c656420746f2066696e616c697a65207468652073616c650000000000600082015250565b6000610986601b8361093f565b915061099182610950565b602082019050919050565b600060208201905081810360008301526109b581610979565b905091905056fea26469706673582212200d4bc7f235d903d33512ac27587c9d33936f0921745fe9506c9e45f971caa29964736f6c63430008110033",
  "linkReferences": {},
  "deployedLinkReferences": {}
}