{
  "_format": "hh-sol-artifact-1",
  "contractName": "Escrow",
  "sourceName": "contracts/Escrow.sol",
  "abi": [
    {
      "inputs": [
        {
          "internalType": "address",
          "name": "_nftAddress",
          "type": "address"
        }
      ],
      "stateMutability": "nonpayable",
      "type": "constructor"
    },
    {
      "anonymous": false,
      "inputs": [
        {
          "indexed": true,
          "internalType": "uint256",
          "name": "tokenId",
          "type": "uint256"
        },
        {
          "indexed": true,
          "internalType": "address",
          "name": "buyer",
          "type": "address"
        },
        {
          "indexed": false,
          "internalType": "uint256",
          "name": "amount",
          "type": "uint256"
        }
      ],
      "name": "EarnestDeposited",
      "type": "event"
    },
    {
      "anonymous": false,
      "inputs": [
        {
          "indexed": true,
          "internalType": "uint256",
          "name": "tokenId",
          "type": "uint256"
        },
        {
          "indexed": true,
          "internalType": "address",
          "name": "buyer",
          "type": "address"
        },
        {
          "indexed": true,
          "internalType": "address",
          "name": "seller",
          "type": "address"
        },
        {
          "indexed": false,
          "internalType": "uint256",
          "name": "price",
          "type": "uint256"
        }
      ],
      "name": "Finalized",
      "type": "event"
    },
    {
      "anonymous": false,
      "inputs": [
        {
          "indexed": true,
          "internalType": "uint256",
          "name": "tokenId",
          "type": "uint256"
        },
        {
          "indexed": true,
          "internalType": "address",
          "name": "seller",
          "type": "address"
        },
        {
          "indexed": false,
          "internalType": "uint256",
          "name": "price",
          "type": "uint256"
        }
      ],
      "name": "Listed",
      "type": "event"
    },
    {
      "anonymous": false,
      "inputs": [
        {
          "indexed": true,
          "internalType": "uint256",
          "name": "tokenId",
          "type": "uint256"
        },
        {
          "indexed": true,
          "internalType": "address",
          "name": "seller",
          "type": "address"
        }
      ],
      "name": "ListingCancelled",
      "type": "event"
    },
    {
      "stateMutability": "payable",
      "type": "fallback"
    },
    {
      "inputs": [
        {
          "internalType": "uint256",
          "name": "",
          "type": "uint256"
        }
      ],
      "name": "buyer",
      "outputs": [
        {
          "internalType": "address",
          "name": "",
          "type": "address"
        }
      ],
      "stateMutability": "view",
      "type": "function"
    },
    {
      "inputs": [
        {
          "internalType": "uint256",
          "name": "_nftId",
          "type": "uint256"
        }
      ],
      "name": "cancelListing",
      "outputs": [],
      "stateMutability": "nonpayable",
      "type": "function"
    },
    {
      "inputs": [
        {
          "internalType": "uint256",
          "name": "_nftId",
          "type": "uint256"
        }
      ],
      "name": "depositEarnest",
      "outputs": [],
      "stateMutability": "payable",
      "type": "function"
    },
    {
      "inputs": [
        {
          "internalType": "uint256",
          "name": "",
          "type": "uint256"
        }
      ],
      "name": "escrowDeposits",
      "outputs": [
        {
          "internalType": "uint256",
          "name": "",
          "type": "uint256"
        }
      ],
      "stateMutability": "view",
      "type": "function"
    },
    {
      "inputs": [
        {
          "internalType": "uint256",
          "name": "_nftId",
          "type": "uint256"
        }
      ],
      "name": "finalizeSale",
      "outputs": [],
      "stateMutability": "nonpayable",
      "type": "function"
    },
    {
      "inputs": [],
      "name": "getAllListings",
      "outputs": [
        {
          "internalType": "uint256[]",
          "name": "ids",
          "type": "uint256[]"
        },
        {
          "internalType": "address[]",
          "name": "sellers",
          "type": "address[]"
        },
        {
          "internalType": "uint256[]",
          "name": "prices",
          "type": "uint256[]"
        },
        {
          "internalType": "bool[]",
          "name": "listed",
          "type": "bool[]"
        }
      ],
      "stateMutability": "view",
      "type": "function"
    },
    {
      "inputs": [],
      "name": "getBalance",
      "outputs": [
        {
          "internalType": "uint256",
          "name": "",
          "type": "uint256"
        }
      ],
      "stateMutability": "view",
      "type": "function"
    },
    {
      "inputs": [],
      "name": "getListedIds",
      "outputs": [
        {
          "internalType": "uint256[]",
          "name": "",
          "type": "uint256[]"
        }
      ],
      "stateMutability": "view",
      "type": "function"
    },
    {
      "inputs": [
        {
          "internalType": "uint256",
          "name": "",
          "type": "uint256"
        }
      ],
      "name": "isListed",
      "outputs": [
        {
          "internalType": "bool",
          "name": "",
          "type": "bool"
        }
      ],
      "stateMutability": "view",
      "type": "function"
    },
    {
      "inputs": [
        {
          "internalType": "uint256",
          "name": "_nftId",
          "type": "uint256"
        },
        {
          "internalType": "uint256",
          "name": "_purchaseAmount",
          "type": "uint256"
        }
      ],
      "name": "listProperty",
      "outputs": [],
      "stateMutability": "nonpayable",
      "type": "function"
    },
    {
      "inputs": [],
      "name": "nftAddress",
      "outputs": [
        {
          "internalType": "address",
          "name": "",
          "type": "address"
        }
      ],
      "stateMutability": "view",
      "type": "function"
    },
    {
      "inputs": [
        {
          "internalType": "uint256",
          "name": "",
          "type": "uint256"
        }
      ],
      "name": "purchaseAmount",
      "outputs": [
        {
          "internalType": "uint256",
          "name": "",
          "type": "uint256"
        }
      ],
      "stateMutability": "view",
      "type": "function"
    },
    {
      "inputs": [
        {
          "internalType": "uint256",
          "name": "",
          "type": "uint256"
        }
      ],
      "name": "sellerOf",
      "outputs": [
        {
          "internalType": "address payable",
          "name": "",
          "type": "address"
        }
      ],
      "stateMutability": "view",
      "type": "function"
    },
    {
      "stateMutability": "payable",
      "type": "receive"
    }
  ],
  "bytecode": "0x608060405234801561001057600080fd5b506040516124aa3803806124aa833981810160405281019061003291906100db565b806000806101000a81548173ffffffffffffffffffffffffffffffffffffffff021916908373ffffffffffffffffffffffffffffffffffffffff16021790555050610108565b600080fd5b600073ffffffffffffffffffffffffffffffffffffffff82169050919050565b60006100a88261007d565b9050919050565b6100b88161009d565b81146100c357600080fd5b50565b6000815190506100d5816100af565b92915050565b6000602082840312156100f1576100f0610078565b5b60006100ff848285016100c6565b91505092915050565b612393806101176000396000f3fe6080604052600436106100c65760003560e01c80635bf8633a1161007f578063cc8f070811610059578063cc8f0708146102e5578063e05c5a8314610322578063e740f7701461035f578063fcce48831461037b57610106565b80635bf8633a14610263578063aa9293801461028e578063ae73ccec146102b757610106565b8063053371981461014157806312065fe01461016c578063305a67a8146101975780634dd4acaf146101c05780634eda529b146101fd57806353fa80c31461022657610106565b36610106576040517f08c379a00000000000000000000000000000000000000000000000000000000081526004016100fd90611714565b60405180910390fd5b6040517f08c379a000000000000000000000000000000000000000000000000000000000815260040161013890611780565b60405180910390fd5b34801561014d57600080fd5b506101566103b8565b6040516101639190611868565b60405180910390f35b34801561017857600080fd5b50610181610410565b60405161018e9190611899565b60405180910390f35b3480156101a357600080fd5b506101be60048036038101906101b991906118e5565b610418565b005b3480156101cc57600080fd5b506101e760048036038101906101e291906118e5565b610879565b6040516101f49190611953565b60405180910390f35b34801561020957600080fd5b50610224600480360381019061021f919061196e565b6108ac565b005b34801561023257600080fd5b5061024d600480360381019061024891906118e5565b610c1b565b60405161025a9190611899565b60405180910390f35b34801561026f57600080fd5b50610278610c33565b6040516102859190611953565b60405180910390f35b34801561029a57600080fd5b506102b560048036038101906102b091906118e5565b610c57565b005b3480156102c357600080fd5b506102cc611100565b6040516102dc9493929190611b36565b60405180910390f35b3480156102f157600080fd5b5061030c600480360381019061030791906118e5565b61139a565b6040516103199190611899565b60405180910390f35b34801561032e57600080fd5b50610349600480360381019061034491906118e5565b6113b2565b6040516103569190611bb8565b60405180910390f35b610379600480360381019061037491906118e5565b6113e5565b005b34801561038757600080fd5b506103a2600480360381019061039d91906118e5565b611569565b6040516103af9190611be2565b60405180910390f35b6060600680548060200260200160405190810160405280929190818152602001828054801561040657602002820191906000526020600020905b8154815260200190600101908083116103f2575b5050505050905090565b600047905090565b806004600082815260200190815260200160002060009054906101000a900473ffffffffffffffffffffffffffffffffffffffff1673ffffffffffffffffffffffffffffffffffffffff163373ffffffffffffffffffffffffffffffffffffffff16146104ba576040517f08c379a00000000000000000000000000000000000000000000000000000000081526004016104b190611c6f565b60405180910390fd5b6001600083815260200190815260200160002060009054906101000a900460ff1661051a576040517f08c379a000000000000000000000000000000000000000000000000000000000815260040161051190611cdb565b60405180910390fd5b60006004600084815260200190815260200160002060009054906101000a900473ffffffffffffffffffffffffffffffffffffffff16905060006003600085815260200190815260200160002060009054906101000a900473ffffffffffffffffffffffffffffffffffffffff16905060006005600086815260200190815260200160002054905060006001600087815260200190815260200160002060006101000a81548160ff0219169083151502179055506000600260008781526020019081526020016000208190555060006003600087815260200190815260200160002060006101000a81548173ffffffffffffffffffffffffffffffffffffffff021916908373ffffffffffffffffffffffffffffffffffffffff16021790555060006004600087815260200190815260200160002060006101000a81548173ffffffffffffffffffffffffffffffffffffffff021916908373ffffffffffffffffffffffffffffffffffffffff160217905550600060056000878152602001908152602001600020819055506106af85611589565b60008054906101000a900473ffffffffffffffffffffffffffffffffffffffff1673ffffffffffffffffffffffffffffffffffffffff166323b872dd3085886040518463ffffffff1660e01b815260040161070c93929190611d5a565b600060405180830381600087803b15801561072657600080fd5b505af115801561073a573d6000803e3d6000fd5b5050505060008111801561077b5750600073ffffffffffffffffffffffffffffffffffffffff168273ffffffffffffffffffffffffffffffffffffffff1614155b1561082e5760008273ffffffffffffffffffffffffffffffffffffffff16826040516107a690611dc2565b60006040518083038185875af1925050503d80600081146107e3576040519150601f19603f3d011682016040523d82523d6000602084013e6107e8565b606091505b505090508061082c576040517f08c379a000000000000000000000000000000000000000000000000000000000815260040161082390611e23565b60405180910390fd5b505b8273ffffffffffffffffffffffffffffffffffffffff16857f8e25282255ab31897df2b0456bb993ac7f84d376861aefd84901d2d63a7428a260405160405180910390a35050505050565b60036020528060005260406000206000915054906101000a900473ffffffffffffffffffffffffffffffffffffffff1681565b6001600083815260200190815260200160002060009054906101000a900460ff161561090d576040517f08c379a000000000000000000000000000000000000000000000000000000000815260040161090490611e8f565b60405180910390fd5b60008060009054906101000a900473ffffffffffffffffffffffffffffffffffffffff1673ffffffffffffffffffffffffffffffffffffffff16636352211e846040518263ffffffff1660e01b81526004016109699190611899565b602060405180830381865afa158015610986573d6000803e3d6000fd5b505050506040513d601f19601f820116820180604052508101906109aa9190611edb565b90503373ffffffffffffffffffffffffffffffffffffffff168173ffffffffffffffffffffffffffffffffffffffff1614610a1a576040517f08c379a0000000000000000000000000000000000000000000000000000000008152600401610a1190611f7a565b60405180910390fd5b60008211610a5d576040517f08c379a0000000000000000000000000000000000000000000000000000000008152600401610a549061200c565b60405180910390fd5b60008054906101000a900473ffffffffffffffffffffffffffffffffffffffff1673ffffffffffffffffffffffffffffffffffffffff166323b872dd3330866040518463ffffffff1660e01b8152600401610aba9392919061202c565b600060405180830381600087803b158015610ad457600080fd5b505af1158015610ae8573d6000803e3d6000fd5b50505050600180600085815260200190815260200160002060006101000a81548160ff021916908315150217905550816002600085815260200190815260200160002081905550336004600085815260200190815260200160002060006101000a81548173ffffffffffffffffffffffffffffffffffffffff021916908373ffffffffffffffffffffffffffffffffffffffff160217905550600683908060018154018082558091505060019003906000526020600020016000909190919091505560068054905060076000858152602001908152602001600020819055503373ffffffffffffffffffffffffffffffffffffffff16837f50955776c5778c3b7d968d86d8c51fb6b29a7a74c20866b533268e209fc0834384604051610c0e9190611899565b60405180910390a3505050565b60056020528060005260406000206000915090505481565b60008054906101000a900473ffffffffffffffffffffffffffffffffffffffff1681565b806003600082815260200190815260200160002060009054906101000a900473ffffffffffffffffffffffffffffffffffffffff1673ffffffffffffffffffffffffffffffffffffffff163373ffffffffffffffffffffffffffffffffffffffff1614610cf9576040517f08c379a0000000000000000000000000000000000000000000000000000000008152600401610cf0906120d5565b60405180910390fd5b6001600083815260200190815260200160002060009054906101000a900460ff16610d59576040517f08c379a0000000000000000000000000000000000000000000000000000000008152600401610d5090612141565b60405180910390fd5b600260008381526020019081526020016000205460056000848152602001908152602001600020541015610dc2576040517f08c379a0000000000000000000000000000000000000000000000000000000008152600401610db9906121ad565b60405180910390fd5b60006004600084815260200190815260200160002060009054906101000a900473ffffffffffffffffffffffffffffffffffffffff16905060006003600085815260200190815260200160002060009054906101000a900473ffffffffffffffffffffffffffffffffffffffff16905060006005600086815260200190815260200160002054905060006001600087815260200190815260200160002060006101000a81548160ff0219169083151502179055506000600260008781526020019081526020016000208190555060006003600087815260200190815260200160002060006101000a81548173ffffffffffffffffffffffffffffffffffffffff021916908373ffffffffffffffffffffffffffffffffffffffff16021790555060006004600087815260200190815260200160002060006101000a81548173ffffffffffffffffffffffffffffffffffffffff021916908373ffffffffffffffffffffffffffffffffffffffff16021790555060006005600087815260200190815260200160002081905550610f5785611589565b60008373ffffffffffffffffffffffffffffffffffffffff1682604051610f7d90611dc2565b60006040518083038185875af1925050503d8060008114610fba576040519150601f19603f3d011682016040523d82523d6000602084013e610fbf565b606091505b5050905080611003576040517f08c379a0000000000000000000000000000000000000000000000000000000008152600401610ffa90612219565b60405180910390fd5b60008054906101000a900473ffffffffffffffffffffffffffffffffffffffff1673ffffffffffffffffffffffffffffffffffffffff166323b872dd3085896040518463ffffffff1660e01b81526004016110609392919061202c565b600060405180830381600087803b15801561107a57600080fd5b505af115801561108e573d6000803e3d6000fd5b505050508373ffffffffffffffffffffffffffffffffffffffff168373ffffffffffffffffffffffffffffffffffffffff16877fbab9b8cf33aeb37546eb59bbfc398d72030e13c66fb2cacd48a0b2a77b1ec46c856040516110f09190611899565b60405180910390a4505050505050565b606080606080600060068054905090508067ffffffffffffffff81111561112a57611129612239565b5b6040519080825280602002602001820160405280156111585781602001602082028036833780820191505090505b5094508067ffffffffffffffff81111561117557611174612239565b5b6040519080825280602002602001820160405280156111a35781602001602082028036833780820191505090505b5093508067ffffffffffffffff8111156111c0576111bf612239565b5b6040519080825280602002602001820160405280156111ee5781602001602082028036833780820191505090505b5092508067ffffffffffffffff81111561120b5761120a612239565b5b6040519080825280602002602001820160405280156112395781602001602082028036833780820191505090505b50915060005b818110156113925760006006828154811061125d5761125c612268565b5b906000526020600020015490508087838151811061127e5761127d612268565b5b6020026020010181815250506004600082815260200190815260200160002060009054906101000a900473ffffffffffffffffffffffffffffffffffffffff168683815181106112d1576112d0612268565b5b602002602001019073ffffffffffffffffffffffffffffffffffffffff16908173ffffffffffffffffffffffffffffffffffffffff1681525050600260008281526020019081526020016000205485838151811061133257611331612268565b5b6020026020010181815250506001600082815260200190815260200160002060009054906101000a900460ff1684838151811061137257611371612268565b5b60200260200101901515908115158152505050808060010191505061123f565b505090919293565b60026020528060005260406000206000915090505481565b60046020528060005260406000206000915054906101000a900473ffffffffffffffffffffffffffffffffffffffff1681565b6001600082815260200190815260200160002060009054906101000a900460ff16611445576040517f08c379a000000000000000000000000000000000000000000000000000000000815260040161143c90611cdb565b60405180910390fd5b600260008281526020019081526020016000205434101561149b576040517f08c379a0000000000000000000000000000000000000000000000000000000008152600401611492906121ad565b60405180910390fd5b336003600083815260200190815260200160002060006101000a81548173ffffffffffffffffffffffffffffffffffffffff021916908373ffffffffffffffffffffffffffffffffffffffff1602179055503460056000838152602001908152602001600020600082825461151091906122c6565b925050819055503373ffffffffffffffffffffffffffffffffffffffff16817f7c6d91bd901e72cb2ba49f5796f5074c109048279c102fe97894cfe1891613c53460405161155e9190611899565b60405180910390a350565b60016020528060005260406000206000915054906101000a900460ff1681565b600060076000838152602001908152602001600020549050600081036115af575061168e565b60006001826115be91906122fa565b9050600060016006805490506115d491906122fa565b9050808214611649576000600682815481106115f3576115f2612268565b5b90600052602060002001549050806006848154811061161557611614612268565b5b906000526020600020018190555060018361163091906122c6565b6007600083815260200190815260200160002081905550505b600680548061165b5761165a61232e565b5b60019003818190600052602060002001600090559055600060076000868152602001908152602001600020819055505050505b50565b600082825260208201905092915050565b7f446972656374206465706f73697473206e6f7420616c6c6f7765643b2075736560008201527f206465706f7369744561726e6573740000000000000000000000000000000000602082015250565b60006116fe602f83611691565b9150611709826116a2565b604082019050919050565b6000602082019050818103600083015261172d816116f1565b9050919050565b7f46616c6c6261636b206e6f7420616c6c6f776564000000000000000000000000600082015250565b600061176a601483611691565b915061177582611734565b602082019050919050565b600060208201905081810360008301526117998161175d565b9050919050565b600081519050919050565b600082825260208201905092915050565b6000819050602082019050919050565b6000819050919050565b6117df816117cc565b82525050565b60006117f183836117d6565b60208301905092915050565b6000602082019050919050565b6000611815826117a0565b61181f81856117ab565b935061182a836117bc565b8060005b8381101561185b57815161184288826117e5565b975061184d836117fd565b92505060018101905061182e565b5085935050505092915050565b60006020820190508181036000830152611882818461180a565b905092915050565b611893816117cc565b82525050565b60006020820190506118ae600083018461188a565b92915050565b600080fd5b6118c2816117cc565b81146118cd57600080fd5b50565b6000813590506118df816118b9565b92915050565b6000602082840312156118fb576118fa6118b4565b5b6000611909848285016118d0565b91505092915050565b600073ffffffffffffffffffffffffffffffffffffffff82169050919050565b600061193d82611912565b9050919050565b61194d81611932565b82525050565b60006020820190506119686000830184611944565b92915050565b60008060408385031215611985576119846118b4565b5b6000611993858286016118d0565b92505060206119a4858286016118d0565b9150509250929050565b600081519050919050565b600082825260208201905092915050565b6000819050602082019050919050565b6119e381611932565b82525050565b60006119f583836119da565b60208301905092915050565b6000602082019050919050565b6000611a19826119ae565b611a2381856119b9565b9350611a2e836119ca565b8060005b83811015611a5f578151611a4688826119e9565b9750611a5183611a01565b925050600181019050611a32565b5085935050505092915050565b600081519050919050565b600082825260208201905092915050565b6000819050602082019050919050565b60008115159050919050565b611aad81611a98565b82525050565b6000611abf8383611aa4565b60208301905092915050565b6000602082019050919050565b6000611ae382611a6c565b611aed8185611a77565b9350611af883611a88565b8060005b83811015611b29578151611b108882611ab3565b9750611b1b83611acb565b925050600181019050611afc565b5085935050505092915050565b60006080820190508181036000830152611b50818761180a565b90508181036020830152611b648186611a0e565b90508181036040830152611b78818561180a565b90508181036060830152611b8c8184611ad8565b905095945050505050565b6000611ba282611912565b9050919050565b611bb281611b97565b82525050565b6000602082019050611bcd6000830184611ba9565b92915050565b611bdc81611a98565b82525050565b6000602082019050611bf76000830184611bd3565b92915050565b7f4f6e6c792073656c6c657220697320616c6c6f77656420746f20646f2074686960008201527f7320616374696f6e000000000000000000000000000000000000000000000000602082015250565b6000611c59602883611691565b9150611c6482611bfd565b604082019050919050565b60006020820190508181036000830152611c8881611c4c565b9050919050565b7f4e4654206e6f74206c6973746564000000000000000000000000000000000000600082015250565b6000611cc5600e83611691565b9150611cd082611c8f565b602082019050919050565b60006020820190508181036000830152611cf481611cb8565b9050919050565b6000819050919050565b6000611d20611d1b611d1684611912565b611cfb565b611912565b9050919050565b6000611d3282611d05565b9050919050565b6000611d4482611d27565b9050919050565b611d5481611d39565b82525050565b6000606082019050611d6f6000830186611944565b611d7c6020830185611d4b565b611d89604083018461188a565b949350505050565b600081905092915050565b50565b6000611dac600083611d91565b9150611db782611d9c565b600082019050919050565b6000611dcd82611d9f565b9150819050919050565b7f526566756e6420746f206275796572206661696c656400000000000000000000600082015250565b6000611e0d601683611691565b9150611e1882611dd7565b602082019050919050565b60006020820190508181036000830152611e3c81611e00565b9050919050565b7f416c7265616479206c6973746564000000000000000000000000000000000000600082015250565b6000611e79600e83611691565b9150611e8482611e43565b602082019050919050565b60006020820190508181036000830152611ea881611e6c565b9050919050565b611eb881611932565b8114611ec357600080fd5b50565b600081519050611ed581611eaf565b92915050565b600060208284031215611ef157611ef06118b4565b5b6000611eff84828501611ec6565b91505092915050565b7f4f6e6c7920746f6b656e206f776e6572732061726520616c6c6f77656420746f60008201527f206c697374000000000000000000000000000000000000000000000000000000602082015250565b6000611f64602583611691565b9150611f6f82611f08565b604082019050919050565b60006020820190508181036000830152611f9381611f57565b9050919050565b7f507572636861736520616d6f756e74206d75737420626520677265617465722060008201527f7468616e20300000000000000000000000000000000000000000000000000000602082015250565b6000611ff6602683611691565b915061200182611f9a565b604082019050919050565b6000602082019050818103600083015261202581611fe9565b9050919050565b60006060820190506120416000830186611944565b61204e6020830185611944565b61205b604083018461188a565b949350505050565b7f4f6e6c7920627579657220697320616c6c6f77656420746f20646f207468697360008201527f20616374696f6e00000000000000000000000000000000000000000000000000602082015250565b60006120bf602783611691565b91506120ca82612063565b604082019050919050565b600060208201905081810360008301526120ee816120b2565b9050919050565b7f4e4654206973206e6f74206c6973746564000000000000000000000000000000600082015250565b600061212b601183611691565b9150612136826120f5565b602082019050919050565b6000602082019050818103600083015261215a8161211e565b9050919050565b7f496e73756666696369656e742066756e6473206465706f736974656400000000600082015250565b6000612197601c83611691565b91506121a282612161565b602082019050919050565b600060208201905081810360008301526121c68161218a565b9050919050565b7f4661696c656420746f2066696e616c697a65207468652073616c650000000000600082015250565b6000612203601b83611691565b915061220e826121cd565b602082019050919050565b60006020820190508181036000830152612232816121f6565b9050919050565b7f4e487b7100000000000000000000000000000000000000000000000000000000600052604160045260246000fd5b7f4e487b7100000000000000000000000000000000000000000000000000000000600052603260045260246000fd5b7f4e487b7100000000000000000000000000000000000000000000000000000000600052601160045260246000fd5b60006122d1826117cc565b91506122dc836117cc565b92508282019050808211156122f4576122f3612297565b5b92915050565b6000612305826117cc565b9150612310836117cc565b925082820390508181111561232857612327612297565b5b92915050565b7f4e487b7100000000000000000000000000000000000000000000000000000000600052603160045260246000fdfea2646970667358221220052ebbb3848d63af4ed00303febe73933dbc8e31a5f92163aae83110887301f264736f6c634300081c0033",
  "linkReferences": {},
  "deployedLinkReferences": {}
}