{
  "_format": "hh-sol-artifact-1",
  "contractName": "RealEstate",
  "sourceName": "contracts/RealEstate.sol",
  "abi": [
    {
      "inputs": [],
      "stateMutability": "nonpayable",
      "type": "constructor"
    },
    {
      "inputs": [
        {
          "internalType": "address",
          "name": "sender",
          "type": "address"
        },
        {
          "internalType": "uint256",
          "name": "tokenId",
          "type": "uint256"
        },
        {
          "internalType": "address",
          "name": "owner",
          "type": "address"
        }
      ],
      "name": "ERC721IncorrectOwner",
      "type": "error"
    },
    {
      "inputs": [
        {
          "internalType": "address",
          "name": "operator",
          "type": "address"
        },
        {
          "internalType": "uint256",
          "name": "tokenId",
          "type": "uint256"
        }
      ],
      "name": "ERC721InsufficientApproval",
      "type": "error"
    },
    {
      "inputs": [
        {
          "internalType": "address",
          "name": "approver",
          "type": "address"
        }
      ],
      "name": "ERC721InvalidApprover",
      "type": "error"
    },
    {
      "inputs": [
        {
          "internalType": "address",
          "name": "operator",
          "type": "address"
        }
      ],
      "name": "ERC721InvalidOperator",
      "type": "error"
    },
    {
      "inputs": [
        {
          "internalType": "address",
          "name": "owner",
          "type": "address"
        }
      ],
      "name": "ERC721InvalidOwner",
      "type": "error"
    },
    {
      "inputs": [
        {
          "internalType": "address",
          "name": "receiver",
          "type": "address"
        }
      ],
      "name": "ERC721InvalidReceiver",
      "type": "error"
    },
    {
      "inputs": [
        {
          "internalType": "address",
          "name": "sender",
          "type": "address"
        }
      ],
      "name": "ERC721InvalidSender",
      "type": "error"
    },
    {
      "inputs": [
        {
          "internalType": "uint256",
          "name": "tokenId",
          "type": "uint256"
        }
      ],
      "name": "ERC721NonexistentToken",
      "type": "error"
    },
    {
      "anonymous": false,
      "inputs": [
        {
          "indexed": true,
          "internalType": "address",
          "name": "owner",
          "type": "address"
        },
        {
          "indexed": true,
          "internalType": "address",
          "name": "approved",
          "type": "address"
        },
        {
          "indexed": true,
          "internalType": "uint256",
          "name": "tokenId",
          "type": "uint256"
        }
      ],
      "name": "Approval",
      "type": "event"
    },
    {
      "anonymous": false,
      "inputs": [
        {
          "indexed": true,
          "internalType": "address",
          "name": "owner",
          "type": "address"
        },
        {
          "indexed": true,
          "internalType": "address",
          "name": "operator",
          "type": "address"
        },
        {
          "indexed": false,
          "internalType": "bool",
          "name": "approved",
          "type": "bool"
        }
      ],
      "name": "ApprovalForAll",
      "type": "event"
    },
    {
      "anonymous": false,
      "inputs": [
        {
          "indexed": false,
          "internalType": "uint256",
          "name": "_fromTokenId",
          "type": "uint256"
        },
        {
          "indexed": false,
          "internalType": "uint256",
          "name": "_toTokenId",
          "type": "uint256"
        }
      ],
      "name": "BatchMetadataUpdate",
      "type": "event"
    },
    {
      "anonymous": false,
      "inputs": [
        {
          "indexed": false,
          "internalType": "uint256",
          "name": "_tokenId",
          "type": "uint256"
        }
      ],
      "name": "MetadataUpdate",
      "type": "event"
    },
    {
      "anonymous": false,
      "inputs": [
        {
          "indexed": true,
          "internalType": "address",
          "name": "from",
          "type": "address"
        },
        {
          "indexed": true,
          "internalType": "address",
          "name": "to",
          "type": "address"
        },
        {
          "indexed": true,
          "internalType": "uint256",
          "name": "tokenId",
          "type": "uint256"
        }
      ],
      "name": "Transfer",
      "type": "event"
    },
    {
      "inputs": [
        {
          "internalType": "address",
          "name": "to",
          "type": "address"
        },
        {
          "internalType": "uint256",
          "name": "tokenId",
          "type": "uint256"
        }
      ],
      "name": "approve",
      "outputs": [],
      "stateMutability": "nonpayable",
      "type": "function"
    },
    {
      "inputs": [
        {
          "internalType": "address",
          "name": "owner",
          "type": "address"
        }
      ],
      "name": "balanceOf",
      "outputs": [
        {
          "internalType": "uint256",
          "name": "",
          "type": "uint256"
        }
      ],
      "stateMutability": "view",
      "type": "function"
    },
    {
      "inputs": [
        {
          "internalType": "uint256",
          "name": "tokenId",
          "type": "uint256"
        }
      ],
      "name": "getApproved",
      "outputs": [
        {
          "internalType": "address",
          "name": "",
          "type": "address"
        }
      ],
      "stateMutability": "view",
      "type": "function"
    },
    {
      "inputs": [
        {
          "internalType": "address",
          "name": "owner",
          "type": "address"
        },
        {
          "internalType": "address",
          "name": "operator",
          "type": "address"
        }
      ],
      "name": "isApprovedForAll",
      "outputs": [
        {
          "internalType": "bool",
          "name": "",
          "type": "bool"
        }
      ],
      "stateMutability": "view",
      "type": "function"
    },
    {
      "inputs": [
        {
          "internalType": "string",
          "name": "_tokenURI",
          "type": "string"
        }
      ],
      "name": "mintProperty",
      "outputs": [
        {
          "internalType": "uint256",
          "name": "",
          "type": "uint256"
        }
      ],
      "stateMutability": "nonpayable",
      "type": "function"
    },
    {
      "inputs": [],
      "name": "name",
      "outputs": [
        {
          "internalType": "string",
          "name": "",
          "type": "string"
        }
      ],
      "stateMutability": "view",
      "type": "function"
    },
    {
      "inputs": [
        {
          "internalType": "uint256",
          "name": "tokenId",
          "type": "uint256"
        }
      ],
      "name": "ownerOf",
      "outputs": [
        {
          "internalType": "address",
          "name": "",
          "type": "address"
        }
      ],
      "stateMutability": "view",
      "type": "function"
    },
    {
      "inputs": [
        {
          "internalType": "address",
          "name": "from",
          "type": "address"
        },
        {
          "internalType": "address",
          "name": "to",
          "type": "address"
        },
        {
          "internalType": "uint256",
          "name": "tokenId",
          "type": "uint256"
        }
      ],
      "name": "safeTransferFrom",
      "outputs": [],
      "stateMutability": "nonpayable",
      "type": "function"
    },
    {
      "inputs": [
        {
          "internalType": "address",
          "name": "from",
          "type": "address"
        },
        {
          "internalType": "address",
          "name": "to",
          "type": "address"
        },
        {
          "internalType": "uint256",
          "name": "tokenId",
          "type": "uint256"
        },
        {
          "internalType": "bytes",
          "name": "data",
          "type": "bytes"
        }
      ],
      "name": "safeTransferFrom",
      "outputs": [],
      "stateMutability": "nonpayable",
      "type": "function"
    },
    {
      "inputs": [
        {
          "internalType": "address",
          "name": "operator",
          "type": "address"
        },
        {
          "internalType": "bool",
          "name": "approved",
          "type": "bool"
        }
      ],
      "name": "setApprovalForAll",
      "outputs": [],
      "stateMutability": "nonpayable",
      "type": "function"
    },
    {
      "inputs": [
        {
          "internalType": "bytes4",
          "name": "interfaceId",
          "type": "bytes4"
        }
      ],
      "name": "supportsInterface",
      "outputs": [
        {
          "internalType": "bool",
          "name": "",
          "type": "bool"
        }
      ],
      "stateMutability": "view",
      "type": "function"
    },
    {
      "inputs": [],
      "name": "symbol",
      "outputs": [
        {
          "internalType": "string",
          "name": "",
          "type": "string"
        }
      ],
      "stateMutability": "view",
      "type": "function"
    },
    {
      "inputs": [
        {
          "internalType": "uint256",
          "name": "tokenId",
          "type": "uint256"
        }
      ],
      "name": "tokenURI",
      "outputs": [
        {
          "internalType": "string",
          "name": "",
          "type": "string"
        }
      ],
      "stateMutability": "view",
      "type": "function"
    },
    {
      "inputs": [],
      "name": "totalSupply",
      "outputs": [
        {
          "internalType": "uint256",
          "name": "",
          "type": "uint256"
        }
      ],
      "stateMutability": "view",
      "type": "function"
    },
    {
      "inputs": [
        {
          "internalType": "address",
          "name": "from",
          "type": "address"
        },
        {
          "internalType": "address",
          "name": "to",
          "type": "address"
        },
        {
          "internalType": "uint256",
          "name": "tokenId",
          "type": "uint256"
        }
      ],
      "name": "transferFrom",
      "outputs": [],
      "stateMutability": "nonpayable",
      "type": "function"
    }
  ],
  "bytecode": "0x6080604052600160075534801561001557600080fd5b506040518060400160405280600a81526020017f5265616c457374617465000000000000000000000000000000000000000000008152506040518060400160405280600481526020017f5245414c00000000000000000000000000000000000000000000000000000000815250816000908161009191906102f9565b5080600190816100a191906102f9565b5050506103cb565b600081519050919050565b7f4e487b7100000000000000000000000000000000000000000000000000000000600052604160045260246000fd5b7f4e487b7100000000000000000000000000000000000000000000000000000000600052602260045260246000fd5b6000600282049050600182168061012a57607f821691505b60208210810361013d5761013c6100e3565b5b50919050565b60008190508160005260206000209050919050565b60006020601f8301049050919050565b600082821b905092915050565b6000600883026101a57fffffffffffffffffffffffffffffffffffffffffffffffffffffffffffffffff82610168565b6101af8683610168565b95508019841693508086168417925050509392505050565b6000819050919050565b6000819050919050565b60006101f66101f16101ec846101c7565b6101d1565b6101c7565b9050919050565b6000819050919050565b610210836101db565b61022461021c826101fd565b848454610175565b825550505050565b600090565b61023961022c565b610244818484610207565b505050565b5b818110156102685761025d600082610231565b60018101905061024a565b5050565b601f8211156102ad5761027e81610143565b61028784610158565b81016020851015610296578190505b6102aa6102a285610158565b830182610249565b50505b505050565b600082821c905092915050565b60006102d0600019846008026102b2565b1980831691505092915050565b60006102e983836102bf565b9150826002028217905092915050565b610302826100a9565b67ffffffffffffffff81111561031b5761031a6100b4565b5b6103258254610112565b61033082828561026c565b600060209050601f8311600181146103635760008415610351578287015190505b61035b85826102dd565b8655506103c3565b601f19841661037186610143565b60005b8281101561039957848901518255600182019150602085019450602081019050610374565b868310156103b657848901516103b2601f8916826102bf565b8355505b6001600288020188555050505b505050505050565b61241d806103da6000396000f3fe608060405234801561001057600080fd5b50600436106100f55760003560e01c80636352211e11610097578063b88d4fde11610066578063b88d4fde14610284578063c87b56dd146102a0578063d850c94c146102d0578063e985e9c514610300576100f5565b80636352211e146101ea57806370a082311461021a57806395d89b411461024a578063a22cb46514610268576100f5565b8063095ea7b3116100d3578063095ea7b31461017857806318160ddd1461019457806323b872dd146101b257806342842e0e146101ce576100f5565b806301ffc9a7146100fa57806306fdde031461012a578063081812fc14610148575b600080fd5b610114600480360381019061010f9190611854565b610330565b604051610121919061189c565b60405180910390f35b610132610391565b60405161013f9190611947565b60405180910390f35b610162600480360381019061015d919061199f565b610423565b60405161016f9190611a0d565b60405180910390f35b610192600480360381019061018d9190611a54565b61043f565b005b61019c610455565b6040516101a99190611aa3565b60405180910390f35b6101cc60048036038101906101c79190611abe565b61046b565b005b6101e860048036038101906101e39190611abe565b61056d565b005b61020460048036038101906101ff919061199f565b61058d565b6040516102119190611a0d565b60405180910390f35b610234600480360381019061022f9190611b11565b61059f565b6040516102419190611aa3565b60405180910390f35b610252610659565b60405161025f9190611947565b60405180910390f35b610282600480360381019061027d9190611b6a565b6106eb565b005b61029e60048036038101906102999190611cdf565b610701565b005b6102ba60048036038101906102b5919061199f565b610726565b6040516102c79190611947565b60405180910390f35b6102ea60048036038101906102e59190611e03565b610839565b6040516102f79190611aa3565b60405180910390f35b61031a60048036038101906103159190611e4c565b610872565b604051610327919061189c565b60405180910390f35b6000634906490660e01b7bffffffffffffffffffffffffffffffffffffffffffffffffffffffff1916827bffffffffffffffffffffffffffffffffffffffffffffffffffffffff1916148061038a575061038982610906565b5b9050919050565b6060600080546103a090611ebb565b80601f01602080910402602001604051908101604052809291908181526020018280546103cc90611ebb565b80156104195780601f106103ee57610100808354040283529160200191610419565b820191906000526020600020905b8154815290600101906020018083116103fc57829003601f168201915b5050505050905090565b600061042e826109e8565b5061043882610a70565b9050919050565b610451828261044c610aad565b610ab5565b5050565b600060016007546104669190611f1b565b905090565b600073ffffffffffffffffffffffffffffffffffffffff168273ffffffffffffffffffffffffffffffffffffffff16036104dd5760006040517f64a0ae920000000000000000000000000000000000000000000000000000000081526004016104d49190611a0d565b60405180910390fd5b60006104f183836104ec610aad565b610ac7565b90508373ffffffffffffffffffffffffffffffffffffffff168173ffffffffffffffffffffffffffffffffffffffff1614610567578382826040517f64283d7b00000000000000000000000000000000000000000000000000000000815260040161055e93929190611f4f565b60405180910390fd5b50505050565b61058883838360405180602001604052806000815250610701565b505050565b6000610598826109e8565b9050919050565b60008073ffffffffffffffffffffffffffffffffffffffff168273ffffffffffffffffffffffffffffffffffffffff16036106125760006040517f89c62b640000000000000000000000000000000000000000000000000000000081526004016106099190611a0d565b60405180910390fd5b600360008373ffffffffffffffffffffffffffffffffffffffff1673ffffffffffffffffffffffffffffffffffffffff168152602001908152602001600020549050919050565b60606001805461066890611ebb565b80601f016020809104026020016040519081016040528092919081815260200182805461069490611ebb565b80156106e15780601f106106b6576101008083540402835291602001916106e1565b820191906000526020600020905b8154815290600101906020018083116106c457829003601f168201915b5050505050905090565b6106fd6106f6610aad565b8383610ce1565b5050565b61070c84848461046b565b610720610717610aad565b85858585610e50565b50505050565b6060610731826109e8565b50600060066000848152602001908152602001600020805461075290611ebb565b80601f016020809104026020016040519081016040528092919081815260200182805461077e90611ebb565b80156107cb5780601f106107a0576101008083540402835291602001916107cb565b820191906000526020600020905b8154815290600101906020018083116107ae57829003601f168201915b5050505050905060006107dc611001565b905060008151036107f1578192505050610834565b60008251111561082657808260405160200161080e929190611fc2565b60405160208183030381529060405292505050610834565b61082f84611018565b925050505b919050565b6000806007600081548092919061084f90611fe6565b91905055905061085f3382611081565b610869818461117a565b80915050919050565b6000600560008473ffffffffffffffffffffffffffffffffffffffff1673ffffffffffffffffffffffffffffffffffffffff16815260200190815260200160002060008373ffffffffffffffffffffffffffffffffffffffff1673ffffffffffffffffffffffffffffffffffffffff16815260200190815260200160002060009054906101000a900460ff16905092915050565b60007f80ac58cd000000000000000000000000000000000000000000000000000000007bffffffffffffffffffffffffffffffffffffffffffffffffffffffff1916827bffffffffffffffffffffffffffffffffffffffffffffffffffffffff191614806109d157507f5b5e139f000000000000000000000000000000000000000000000000000000007bffffffffffffffffffffffffffffffffffffffffffffffffffffffff1916827bffffffffffffffffffffffffffffffffffffffffffffffffffffffff1916145b806109e157506109e0826111d6565b5b9050919050565b6000806109f483611240565b9050600073ffffffffffffffffffffffffffffffffffffffff168173ffffffffffffffffffffffffffffffffffffffff1603610a6757826040517f7e273289000000000000000000000000000000000000000000000000000000008152600401610a5e9190611aa3565b60405180910390fd5b80915050919050565b60006004600083815260200190815260200160002060009054906101000a900473ffffffffffffffffffffffffffffffffffffffff169050919050565b600033905090565b610ac2838383600161127d565b505050565b600080610ad384611240565b9050600073ffffffffffffffffffffffffffffffffffffffff168373ffffffffffffffffffffffffffffffffffffffff1614610b1557610b14818486611442565b5b600073ffffffffffffffffffffffffffffffffffffffff168173ffffffffffffffffffffffffffffffffffffffff1614610ba657610b5760008560008061127d565b6001600360008373ffffffffffffffffffffffffffffffffffffffff1673ffffffffffffffffffffffffffffffffffffffff168152602001908152602001600020600082825403925050819055505b600073ffffffffffffffffffffffffffffffffffffffff168573ffffffffffffffffffffffffffffffffffffffff1614610c29576001600360008773ffffffffffffffffffffffffffffffffffffffff1673ffffffffffffffffffffffffffffffffffffffff168152602001908152602001600020600082825401925050819055505b846002600086815260200190815260200160002060006101000a81548173ffffffffffffffffffffffffffffffffffffffff021916908373ffffffffffffffffffffffffffffffffffffffff160217905550838573ffffffffffffffffffffffffffffffffffffffff168273ffffffffffffffffffffffffffffffffffffffff167fddf252ad1be2c89b69c2b068fc378daa952ba7f163c4a11628f55a4df523b3ef60405160405180910390a4809150509392505050565b600073ffffffffffffffffffffffffffffffffffffffff168273ffffffffffffffffffffffffffffffffffffffff1603610d5257816040517f5b08ba18000000000000000000000000000000000000000000000000000000008152600401610d499190611a0d565b60405180910390fd5b80600560008573ffffffffffffffffffffffffffffffffffffffff1673ffffffffffffffffffffffffffffffffffffffff16815260200190815260200160002060008473ffffffffffffffffffffffffffffffffffffffff1673ffffffffffffffffffffffffffffffffffffffff16815260200190815260200160002060006101000a81548160ff0219169083151502179055508173ffffffffffffffffffffffffffffffffffffffff168373ffffffffffffffffffffffffffffffffffffffff167f17307eab39ab6107e8899845ad3d59bd9653f200f220920489ca2b5937696c3183604051610e43919061189c565b60405180910390a3505050565b60008373ffffffffffffffffffffffffffffffffffffffff163b1115610ffa578273ffffffffffffffffffffffffffffffffffffffff1663150b7a02868685856040518563ffffffff1660e01b8152600401610eaf9493929190612083565b6020604051808303816000875af1925050508015610eeb57506040513d601f19601f82011682018060405250810190610ee891906120e4565b60015b610f6f573d8060008114610f1b576040519150601f19603f3d011682016040523d82523d6000602084013e610f20565b606091505b506000815103610f6757836040517f64a0ae92000000000000000000000000000000000000000000000000000000008152600401610f5e9190611a0d565b60405180910390fd5b805160208201fd5b63150b7a0260e01b7bffffffffffffffffffffffffffffffffffffffffffffffffffffffff1916817bffffffffffffffffffffffffffffffffffffffffffffffffffffffff191614610ff857836040517f64a0ae92000000000000000000000000000000000000000000000000000000008152600401610fef9190611a0d565b60405180910390fd5b505b5050505050565b606060405180602001604052806000815250905090565b6060611023826109e8565b50600061102e611001565b9050600081511161104e5760405180602001604052806000815250611079565b8061105884611506565b604051602001611069929190611fc2565b6040516020818303038152906040525b915050919050565b600073ffffffffffffffffffffffffffffffffffffffff168273ffffffffffffffffffffffffffffffffffffffff16036110f35760006040517f64a0ae920000000000000000000000000000000000000000000000000000000081526004016110ea9190611a0d565b60405180910390fd5b600061110183836000610ac7565b9050600073ffffffffffffffffffffffffffffffffffffffff168173ffffffffffffffffffffffffffffffffffffffff16146111755760006040517f73c6ac6e00000000000000000000000000000000000000000000000000000000815260040161116c9190611a0d565b60405180910390fd5b505050565b8060066000848152602001908152602001600020908161119a91906122bd565b507ff8e1a15aba9398e019f0b49df1a4fde98ee17ae345cb5f6b5e2c27f5033e8ce7826040516111ca9190611aa3565b60405180910390a15050565b60007f01ffc9a7000000000000000000000000000000000000000000000000000000007bffffffffffffffffffffffffffffffffffffffffffffffffffffffff1916827bffffffffffffffffffffffffffffffffffffffffffffffffffffffff1916149050919050565b60006002600083815260200190815260200160002060009054906101000a900473ffffffffffffffffffffffffffffffffffffffff169050919050565b80806112b65750600073ffffffffffffffffffffffffffffffffffffffff168273ffffffffffffffffffffffffffffffffffffffff1614155b156113ea5760006112c6846109e8565b9050600073ffffffffffffffffffffffffffffffffffffffff168373ffffffffffffffffffffffffffffffffffffffff161415801561133157508273ffffffffffffffffffffffffffffffffffffffff168173ffffffffffffffffffffffffffffffffffffffff1614155b801561134457506113428184610872565b155b1561138657826040517fa9fbf51f00000000000000000000000000000000000000000000000000000000815260040161137d9190611a0d565b60405180910390fd5b81156113e857838573ffffffffffffffffffffffffffffffffffffffff168273ffffffffffffffffffffffffffffffffffffffff167f8c5be1e5ebec7d5bd14f71427d1e84f3dd0314c0f7b2291e5b200ac8c7c3b92560405160405180910390a45b505b836004600085815260200190815260200160002060006101000a81548173ffffffffffffffffffffffffffffffffffffffff021916908373ffffffffffffffffffffffffffffffffffffffff16021790555050505050565b61144d8383836115d4565b61150157600073ffffffffffffffffffffffffffffffffffffffff168373ffffffffffffffffffffffffffffffffffffffff16036114c257806040517f7e2732890000000000000000000000000000000000000000000000000000000081526004016114b99190611aa3565b60405180910390fd5b81816040517f177e802f0000000000000000000000000000000000000000000000000000000081526004016114f892919061238f565b60405180910390fd5b505050565b60606000600161151584611695565b01905060008167ffffffffffffffff81111561153457611533611bb4565b5b6040519080825280601f01601f1916602001820160405280156115665781602001600182028036833780820191505090505b509050600082602083010190505b6001156115c9578080600190039150507f3031323334353637383961626364656600000000000000000000000000000000600a86061a8153600a85816115bd576115bc6123b8565b5b04945060008503611574575b819350505050919050565b60008073ffffffffffffffffffffffffffffffffffffffff168373ffffffffffffffffffffffffffffffffffffffff161415801561168c57508273ffffffffffffffffffffffffffffffffffffffff168473ffffffffffffffffffffffffffffffffffffffff16148061164d575061164c8484610872565b5b8061168b57508273ffffffffffffffffffffffffffffffffffffffff1661167383610a70565b73ffffffffffffffffffffffffffffffffffffffff16145b5b90509392505050565b600080600090507a184f03e93ff9f4daa797ed6e38ed64bf6a1f01000000000000000083106116f3577a184f03e93ff9f4daa797ed6e38ed64bf6a1f01000000000000000083816116e9576116e86123b8565b5b0492506040810190505b6d04ee2d6d415b85acef81000000008310611730576d04ee2d6d415b85acef81000000008381611726576117256123b8565b5b0492506020810190505b662386f26fc10000831061175f57662386f26fc100008381611755576117546123b8565b5b0492506010810190505b6305f5e1008310611788576305f5e100838161177e5761177d6123b8565b5b0492506008810190505b61271083106117ad5761271083816117a3576117a26123b8565b5b0492506004810190505b606483106117d057606483816117c6576117c56123b8565b5b0492506002810190505b600a83106117df576001810190505b80915050919050565b6000604051905090565b600080fd5b600080fd5b60007fffffffff0000000000000000000000000000000000000000000000000000000082169050919050565b611831816117fc565b811461183c57600080fd5b50565b60008135905061184e81611828565b92915050565b60006020828403121561186a576118696117f2565b5b60006118788482850161183f565b91505092915050565b60008115159050919050565b61189681611881565b82525050565b60006020820190506118b1600083018461188d565b92915050565b600081519050919050565b600082825260208201905092915050565b60005b838110156118f15780820151818401526020810190506118d6565b60008484015250505050565b6000601f19601f8301169050919050565b6000611919826118b7565b61192381856118c2565b93506119338185602086016118d3565b61193c816118fd565b840191505092915050565b60006020820190508181036000830152611961818461190e565b905092915050565b6000819050919050565b61197c81611969565b811461198757600080fd5b50565b60008135905061199981611973565b92915050565b6000602082840312156119b5576119b46117f2565b5b60006119c38482850161198a565b91505092915050565b600073ffffffffffffffffffffffffffffffffffffffff82169050919050565b60006119f7826119cc565b9050919050565b611a07816119ec565b82525050565b6000602082019050611a2260008301846119fe565b92915050565b611a31816119ec565b8114611a3c57600080fd5b50565b600081359050611a4e81611a28565b92915050565b60008060408385031215611a6b57611a6a6117f2565b5b6000611a7985828601611a3f565b9250506020611a8a8582860161198a565b9150509250929050565b611a9d81611969565b82525050565b6000602082019050611ab86000830184611a94565b92915050565b600080600060608486031215611ad757611ad66117f2565b5b6000611ae586828701611a3f565b9350506020611af686828701611a3f565b9250506040611b078682870161198a565b9150509250925092565b600060208284031215611b2757611b266117f2565b5b6000611b3584828501611a3f565b91505092915050565b611b4781611881565b8114611b5257600080fd5b50565b600081359050611b6481611b3e565b92915050565b60008060408385031215611b8157611b806117f2565b5b6000611b8f85828601611a3f565b9250506020611ba085828601611b55565b9150509250929050565b600080fd5b600080fd5b7f4e487b7100000000000000000000000000000000000000000000000000000000600052604160045260246000fd5b611bec826118fd565b810181811067ffffffffffffffff82111715611c0b57611c0a611bb4565b5b80604052505050565b6000611c1e6117e8565b9050611c2a8282611be3565b919050565b600067ffffffffffffffff821115611c4a57611c49611bb4565b5b611c53826118fd565b9050602081019050919050565b82818337600083830152505050565b6000611c82611c7d84611c2f565b611c14565b905082815260208101848484011115611c9e57611c9d611baf565b5b611ca9848285611c60565b509392505050565b600082601f830112611cc657611cc5611baa565b5b8135611cd6848260208601611c6f565b91505092915050565b60008060008060808587031215611cf957611cf86117f2565b5b6000611d0787828801611a3f565b9450506020611d1887828801611a3f565b9350506040611d298782880161198a565b925050606085013567ffffffffffffffff811115611d4a57611d496117f7565b5b611d5687828801611cb1565b91505092959194509250565b600067ffffffffffffffff821115611d7d57611d7c611bb4565b5b611d86826118fd565b9050602081019050919050565b6000611da6611da184611d62565b611c14565b905082815260208101848484011115611dc257611dc1611baf565b5b611dcd848285611c60565b509392505050565b600082601f830112611dea57611de9611baa565b5b8135611dfa848260208601611d93565b91505092915050565b600060208284031215611e1957611e186117f2565b5b600082013567ffffffffffffffff811115611e3757611e366117f7565b5b611e4384828501611dd5565b91505092915050565b60008060408385031215611e6357611e626117f2565b5b6000611e7185828601611a3f565b9250506020611e8285828601611a3f565b9150509250929050565b7f4e487b7100000000000000000000000000000000000000000000000000000000600052602260045260246000fd5b60006002820490506001821680611ed357607f821691505b602082108103611ee657611ee5611e8c565b5b50919050565b7f4e487b7100000000000000000000000000000000000000000000000000000000600052601160045260246000fd5b6000611f2682611969565b9150611f3183611969565b9250828203905081811115611f4957611f48611eec565b5b92915050565b6000606082019050611f6460008301866119fe565b611f716020830185611a94565b611f7e60408301846119fe565b949350505050565b600081905092915050565b6000611f9c826118b7565b611fa68185611f86565b9350611fb68185602086016118d3565b80840191505092915050565b6000611fce8285611f91565b9150611fda8284611f91565b91508190509392505050565b6000611ff182611969565b91507fffffffffffffffffffffffffffffffffffffffffffffffffffffffffffffffff820361202357612022611eec565b5b600182019050919050565b600081519050919050565b600082825260208201905092915050565b60006120558261202e565b61205f8185612039565b935061206f8185602086016118d3565b612078816118fd565b840191505092915050565b600060808201905061209860008301876119fe565b6120a560208301866119fe565b6120b26040830185611a94565b81810360608301526120c4818461204a565b905095945050505050565b6000815190506120de81611828565b92915050565b6000602082840312156120fa576120f96117f2565b5b6000612108848285016120cf565b91505092915050565b60008190508160005260206000209050919050565b60006020601f8301049050919050565b600082821b905092915050565b6000600883026121737fffffffffffffffffffffffffffffffffffffffffffffffffffffffffffffffff82612136565b61217d8683612136565b95508019841693508086168417925050509392505050565b6000819050919050565b60006121ba6121b56121b084611969565b612195565b611969565b9050919050565b6000819050919050565b6121d48361219f565b6121e86121e0826121c1565b848454612143565b825550505050565b600090565b6121fd6121f0565b6122088184846121cb565b505050565b5b8181101561222c576122216000826121f5565b60018101905061220e565b5050565b601f8211156122715761224281612111565b61224b84612126565b8101602085101561225a578190505b61226e61226685612126565b83018261220d565b50505b505050565b600082821c905092915050565b600061229460001984600802612276565b1980831691505092915050565b60006122ad8383612283565b9150826002028217905092915050565b6122c6826118b7565b67ffffffffffffffff8111156122df576122de611bb4565b5b6122e98254611ebb565b6122f4828285612230565b600060209050601f8311600181146123275760008415612315578287015190505b61231f85826122a1565b865550612387565b601f19841661233586612111565b60005b8281101561235d57848901518255600182019150602085019450602081019050612338565b8683101561237a5784890151612376601f891682612283565b8355505b6001600288020188555050505b505050505050565b60006040820190506123a460008301856119fe565b6123b16020830184611a94565b9392505050565b7f4e487b7100000000000000000000000000000000000000000000000000000000600052601260045260246000fdfea264697066735822122062b6468e603f053a7284ec8e16d97549429585b8ae25ffae12311c9eb5030e2464736f6c634300081c0033",
  "linkReferences": {},
  "deployedLinkReferences": {}
}