{
  "_format": "hh-sol-artifact-1",
  "contractName": "RealEstate",
  "sourceName": "contracts/RealEstate.sol",
  "abi": [
    {
      "inputs": [],
      "stateMutability": "nonpayable",
      "type": "constructor"
    },
    {
      "inputs": [
        {
          "internalType": "uint256",
          "name": "numerator",
          "type": "uint256"
        },
        {
          "internalType": "uint256",
          "name": "denominator",
          "type": "uint256"
        }
      ],
      "name": "ERC2981InvalidDefaultRoyalty",
      "type": "error"
    },
    {
      "inputs": [
        {
          "internalType": "address",
          "name": "receiver",
          "type": "address"
        }
      ],
      "name": "ERC2981InvalidDefaultRoyaltyReceiver",
      "type": "error"
    },
    {
      "inputs": [
        {
          "internalType": "uint256",
          "name": "tokenId",
          "type": "uint256"
        },
        {
          "internalType": "uint256",
          "name": "numerator",
          "type": "uint256"
        },
        {
          "internalType": "uint256",
          "name": "denominator",
          "type": "uint256"
        }
      ],
      "name": "ERC2981InvalidTokenRoyalty",
      "type": "error"
    },
    {
      "inputs": [
        {
          "internalType": "uint256",
          "name": "tokenId",
          "type": "uint256"
        },
        {
          "internalType": "address",
          "name": "receiver",
          "type": "address"
        }
      ],
      "name": "ERC2981InvalidTokenRoyaltyReceiver",
      "type": "error"
    },
    {
      "inputs": [
        {
          "internalType": "address",
          "name": "sender",
          "type": "address"
        },
        {
          "internalType": "uint256",
          "name": "tokenId",
          "type": "uint256"
        },
        {
          "internalType": "address",
          "name": "owner",
          "type": "address"
        }
      ],
      "name": "ERC721IncorrectOwner",
      "type": "error"
    },
    {
      "inputs": [
        {
          "internalType": "address",
          "name": "operator",
          "type": "address"
        },
        {
          "internalType": "uint256",
          "name": "tokenId",
          "type": "uint256"
        }
      ],
      "name": "ERC721InsufficientApproval",
      "type": "error"
    },
    {
      "inputs": [
        {
          "internalType": "address",
          "name": "approver",
          "type": "address"
        }
      ],
      "name": "ERC721InvalidApprover",
      "type": "error"
    },
    {
      "inputs": [
        {
          "internalType": "address",
          "name": "operator",
          "type": "address"
        }
      ],
      "name": "ERC721InvalidOperator",
      "type": "error"
    },
    {
      "inputs": [
        {
          "internalType": "address",
          "name": "owner",
          "type": "address"
        }
      ],
      "name": "ERC721InvalidOwner",
      "type": "error"
    },
    {
      "inputs": [
        {
          "internalType": "address",
          "name": "receiver",
          "type": "address"
        }
      ],
      "name": "ERC721InvalidReceiver",
      "type": "error"
    },
    {
      "inputs": [
        {
          "internalType": "address",
          "name": "sender",
          "type": "address"
        }
      ],
      "name": "ERC721InvalidSender",
      "type": "error"
    },
    {
      "inputs": [
        {
          "internalType": "uint256",
          "name": "tokenId",
          "type": "uint256"
        }
      ],
      "name": "ERC721NonexistentToken",
      "type": "error"
    },
    {
      "inputs": [
        {
          "internalType": "address",
          "name": "owner",
          "type": "address"
        }
      ],
      "name": "OwnableInvalidOwner",
      "type": "error"
    },
    {
      "inputs": [
        {
          "internalType": "address",
          "name": "account",
          "type": "address"
        }
      ],
      "name": "OwnableUnauthorizedAccount",
      "type": "error"
    },
    {
      "anonymous": false,
      "inputs": [
        {
          "indexed": true,
          "internalType": "address",
          "name": "owner",
          "type": "address"
        },
        {
          "indexed": true,
          "internalType": "address",
          "name": "approved",
          "type": "address"
        },
        {
          "indexed": true,
          "internalType": "uint256",
          "name": "tokenId",
          "type": "uint256"
        }
      ],
      "name": "Approval",
      "type": "event"
    },
    {
      "anonymous": false,
      "inputs": [
        {
          "indexed": true,
          "internalType": "address",
          "name": "owner",
          "type": "address"
        },
        {
          "indexed": true,
          "internalType": "address",
          "name": "operator",
          "type": "address"
        },
        {
          "indexed": false,
          "internalType": "bool",
          "name": "approved",
          "type": "bool"
        }
      ],
      "name": "ApprovalForAll",
      "type": "event"
    },
    {
      "anonymous": false,
      "inputs": [
        {
          "indexed": false,
          "internalType": "uint256",
          "name": "_fromTokenId",
          "type": "uint256"
        },
        {
          "indexed": false,
          "internalType": "uint256",
          "name": "_toTokenId",
          "type": "uint256"
        }
      ],
      "name": "BatchMetadataUpdate",
      "type": "event"
    },
    {
      "anonymous": false,
      "inputs": [
        {
          "indexed": false,
          "internalType": "uint256",
          "name": "_tokenId",
          "type": "uint256"
        }
      ],
      "name": "MetadataUpdate",
      "type": "event"
    },
    {
      "anonymous": false,
      "inputs": [
        {
          "indexed": true,
          "internalType": "uint256",
          "name": "tokenId",
          "type": "uint256"
        },
        {
          "indexed": true,
          "internalType": "address",
          "name": "minter",
          "type": "address"
        },
        {
          "indexed": false,
          "internalType": "address",
          "name": "royaltyRecipient",
          "type": "address"
        },
        {
          "indexed": false,
          "internalType": "uint96",
          "name": "royaltyBps",
          "type": "uint96"
        }
      ],
      "name": "MintedWithRoyalty",
      "type": "event"
    },
    {
      "anonymous": false,
      "inputs": [
        {
          "indexed": true,
          "internalType": "address",
          "name": "previousOwner",
          "type": "address"
        },
        {
          "indexed": true,
          "internalType": "address",
          "name": "newOwner",
          "type": "address"
        }
      ],
      "name": "OwnershipTransferred",
      "type": "event"
    },
    {
      "anonymous": false,
      "inputs": [
        {
          "indexed": true,
          "internalType": "address",
          "name": "from",
          "type": "address"
        },
        {
          "indexed": true,
          "internalType": "address",
          "name": "to",
          "type": "address"
        },
        {
          "indexed": true,
          "internalType": "uint256",
          "name": "tokenId",
          "type": "uint256"
        }
      ],
      "name": "Transfer",
      "type": "event"
    },
    {
      "inputs": [],
      "name": "MAX_ROYALTY_BPS",
      "outputs": [
        {
          "internalType": "uint96",
          "name": "",
          "type": "uint96"
        }
      ],
      "stateMutability": "view",
      "type": "function"
    },
    {
      "inputs": [
        {
          "internalType": "address",
          "name": "to",
          "type": "address"
        },
        {
          "internalType": "uint256",
          "name": "tokenId",
          "type": "uint256"
        }
      ],
      "name": "approve",
      "outputs": [],
      "stateMutability": "nonpayable",
      "type": "function"
    },
    {
      "inputs": [
        {
          "internalType": "address",
          "name": "owner",
          "type": "address"
        }
      ],
      "name": "balanceOf",
      "outputs": [
        {
          "internalType": "uint256",
          "name": "",
          "type": "uint256"
        }
      ],
      "stateMutability": "view",
      "type": "function"
    },
    {
      "inputs": [],
      "name": "deleteDefaultRoyalty",
      "outputs": [],
      "stateMutability": "nonpayable",
      "type": "function"
    },
    {
      "inputs": [
        {
          "internalType": "uint256",
          "name": "tokenId",
          "type": "uint256"
        }
      ],
      "name": "getApproved",
      "outputs": [
        {
          "internalType": "address",
          "name": "",
          "type": "address"
        }
      ],
      "stateMutability": "view",
      "type": "function"
    },
    {
      "inputs": [
        {
          "internalType": "address",
          "name": "owner",
          "type": "address"
        },
        {
          "internalType": "address",
          "name": "operator",
          "type": "address"
        }
      ],
      "name": "isApprovedForAll",
      "outputs": [
        {
          "internalType": "bool",
          "name": "",
          "type": "bool"
        }
      ],
      "stateMutability": "view",
      "type": "function"
    },
    {
      "inputs": [
        {
          "internalType": "string",
          "name": "_tokenURI",
          "type": "string"
        },
        {
          "internalType": "address",
          "name": "_royaltyRecipient",
          "type": "address"
        },
        {
          "internalType": "uint96",
          "name": "_royaltyBps",
          "type": "uint96"
        }
      ],
      "name": "mintProperty",
      "outputs": [
        {
          "internalType": "uint256",
          "name": "",
          "type": "uint256"
        }
      ],
      "stateMutability": "nonpayable",
      "type": "function"
    },
    {
      "inputs": [],
      "name": "name",
      "outputs": [
        {
          "internalType": "string",
          "name": "",
          "type": "string"
        }
      ],
      "stateMutability": "view",
      "type": "function"
    },
    {
      "inputs": [],
      "name": "owner",
      "outputs": [
        {
          "internalType": "address",
          "name": "",
          "type": "address"
        }
      ],
      "stateMutability": "view",
      "type": "function"
    },
    {
      "inputs": [
        {
          "internalType": "uint256",
          "name": "tokenId",
          "type": "uint256"
        }
      ],
      "name": "ownerOf",
      "outputs": [
        {
          "internalType": "address",
          "name": "",
          "type": "address"
        }
      ],
      "stateMutability": "view",
      "type": "function"
    },
    {
      "inputs": [],
      "name": "renounceOwnership",
      "outputs": [],
      "stateMutability": "nonpayable",
      "type": "function"
    },
    {
      "inputs": [
        {
          "internalType": "uint256",
          "name": "tokenId",
          "type": "uint256"
        }
      ],
      "name": "resetTokenRoyalty",
      "outputs": [],
      "stateMutability": "nonpayable",
      "type": "function"
    },
    {
      "inputs": [
        {
          "internalType": "uint256",
          "name": "tokenId",
          "type": "uint256"
        },
        {
          "internalType": "uint256",
          "name": "salePrice",
          "type": "uint256"
        }
      ],
      "name": "royaltyInfo",
      "outputs": [
        {
          "internalType": "address",
          "name": "receiver",
          "type": "address"
        },
        {
          "internalType": "uint256",
          "name": "amount",
          "type": "uint256"
        }
      ],
      "stateMutability": "view",
      "type": "function"
    },
    {
      "inputs": [
        {
          "internalType": "address",
          "name": "from",
          "type": "address"
        },
        {
          "internalType": "address",
          "name": "to",
          "type": "address"
        },
        {
          "internalType": "uint256",
          "name": "tokenId",
          "type": "uint256"
        }
      ],
      "name": "safeTransferFrom",
      "outputs": [],
      "stateMutability": "nonpayable",
      "type": "function"
    },
    {
      "inputs": [
        {
          "internalType": "address",
          "name": "from",
          "type": "address"
        },
        {
          "internalType": "address",
          "name": "to",
          "type": "address"
        },
        {
          "internalType": "uint256",
          "name": "tokenId",
          "type": "uint256"
        },
        {
          "internalType": "bytes",
          "name": "data",
          "type": "bytes"
        }
      ],
      "name": "safeTransferFrom",
      "outputs": [],
      "stateMutability": "nonpayable",
      "type": "function"
    },
    {
      "inputs": [
        {
          "internalType": "address",
          "name": "operator",
          "type": "address"
        },
        {
          "internalType": "bool",
          "name": "approved",
          "type": "bool"
        }
      ],
      "name": "setApprovalForAll",
      "outputs": [],
      "stateMutability": "nonpayable",
      "type": "function"
    },
    {
      "inputs": [
        {
          "internalType": "address",
          "name": "receiver",
          "type": "address"
        },
        {
          "internalType": "uint96",
          "name": "feeNumerator",
          "type": "uint96"
        }
      ],
      "name": "setDefaultRoyalty",
      "outputs": [],
      "stateMutability": "nonpayable",
      "type": "function"
    },
    {
      "inputs": [
        {
          "internalType": "bytes4",
          "name": "interfaceId",
          "type": "bytes4"
        }
      ],
      "name": "supportsInterface",
      "outputs": [
        {
          "internalType": "bool",
          "name": "",
          "type": "bool"
        }
      ],
      "stateMutability": "view",
      "type": "function"
    },
    {
      "inputs": [],
      "name": "symbol",
      "outputs": [
        {
          "internalType": "string",
          "name": "",
          "type": "string"
        }
      ],
      "stateMutability": "view",
      "type": "function"
    },
    {
      "inputs": [
        {
          "internalType": "uint256",
          "name": "tokenId",
          "type": "uint256"
        }
      ],
      "name": "tokenURI",
      "outputs": [
        {
          "internalType": "string",
          "name": "",
          "type": "string"
        }
      ],
      "stateMutability": "view",
      "type": "function"
    },
    {
      "inputs": [],
      "name": "totalSupply",
      "outputs": [
        {
          "internalType": "uint256",
          "name": "",
          "type": "uint256"
        }
      ],
      "stateMutability": "view",
      "type": "function"
    },
    {
      "inputs": [
        {
          "internalType": "address",
          "name": "from",
          "type": "address"
        },
        {
          "internalType": "address",
          "name": "to",
          "type": "address"
        },
        {
          "internalType": "uint256",
          "name": "tokenId",
          "type": "uint256"
        }
      ],
      "name": "transferFrom",
      "outputs": [],
      "stateMutability": "nonpayable",
      "type": "function"
    },
    {
      "inputs": [
        {
          "internalType": "address",
          "name": "newOwner",
          "type": "address"
        }
      ],
      "name": "transferOwnership",
      "outputs": [],
      "stateMutability": "nonpayable",
      "type": "function"
    }
  ],
  "bytecode": "0x60806040526001600a5534801561001557600080fd5b50336040518060400160405280600a81526020017f5265616c457374617465000000000000000000000000000000000000000000008152506040518060400160405280600481526020017f5245414c0000000000000000000000000000000000000000000000000000000081525081600090816100929190610442565b5080600190816100a29190610442565b505050600073ffffffffffffffffffffffffffffffffffffffff168173ffffffffffffffffffffffffffffffffffffffff16036101175760006040517f1e4fbdf700000000000000000000000000000000000000000000000000000000815260040161010e9190610555565b60405180910390fd5b6101268161012c60201b60201c565b50610570565b6000600960009054906101000a900473ffffffffffffffffffffffffffffffffffffffff16905081600960006101000a81548173ffffffffffffffffffffffffffffffffffffffff021916908373ffffffffffffffffffffffffffffffffffffffff1602179055508173ffffffffffffffffffffffffffffffffffffffff168173ffffffffffffffffffffffffffffffffffffffff167f8be0079c531659141344cd1fd0a4f28419497f9722a3daafe3b4186f6b6457e060405160405180910390a35050565b600081519050919050565b7f4e487b7100000000000000000000000000000000000000000000000000000000600052604160045260246000fd5b7f4e487b7100000000000000000000000000000000000000000000000000000000600052602260045260246000fd5b6000600282049050600182168061027357607f821691505b6020821081036102865761028561022c565b5b50919050565b60008190508160005260206000209050919050565b60006020601f8301049050919050565b600082821b905092915050565b6000600883026102ee7fffffffffffffffffffffffffffffffffffffffffffffffffffffffffffffffff826102b1565b6102f886836102b1565b95508019841693508086168417925050509392505050565b6000819050919050565b6000819050919050565b600061033f61033a61033584610310565b61031a565b610310565b9050919050565b6000819050919050565b61035983610324565b61036d61036582610346565b8484546102be565b825550505050565b600090565b610382610375565b61038d818484610350565b505050565b5b818110156103b1576103a660008261037a565b600181019050610393565b5050565b601f8211156103f6576103c78161028c565b6103d0846102a1565b810160208510156103df578190505b6103f36103eb856102a1565b830182610392565b50505b505050565b600082821c905092915050565b6000610419600019846008026103fb565b1980831691505092915050565b60006104328383610408565b9150826002028217905092915050565b61044b826101f2565b67ffffffffffffffff811115610464576104636101fd565b5b61046e825461025b565b6104798282856103b5565b600060209050601f8311600181146104ac576000841561049a578287015190505b6104a48582610426565b86555061050c565b601f1984166104ba8661028c565b60005b828110156104e2578489015182556001820191506020850194506020810190506104bd565b868310156104ff57848901516104fb601f891682610408565b8355505b6001600288020188555050505b505050505050565b600073ffffffffffffffffffffffffffffffffffffffff82169050919050565b600061053f82610514565b9050919050565b61054f81610534565b82525050565b600060208201905061056a6000830184610546565b92915050565b61321d8061057f6000396000f3fe608060405234801561001057600080fd5b506004361061014d5760003560e01c806370a08231116100c3578063a22cb4651161007c578063a22cb4651461039f578063aa1b103f146103bb578063b88d4fde146103c5578063c87b56dd146103e1578063e985e9c514610411578063f2fde38b146104415761014d565b806370a08231146102dd578063715018a61461030d5780638a616bc0146103175780638da5cb5b1461033357806395d89b41146103515780639eaecec81461036f5761014d565b806318160ddd1161011557806318160ddd1461020857806323b872dd146102265780632a55205a146102425780633dca40e61461027357806342842e0e146102915780636352211e146102ad5761014d565b806301ffc9a71461015257806304634d8d1461018257806306fdde031461019e578063081812fc146101bc578063095ea7b3146101ec575b600080fd5b61016c60048036038101906101679190612312565b61045d565b604051610179919061235a565b60405180910390f35b61019c60048036038101906101979190612417565b61046f565b005b6101a66104e6565b6040516101b391906124e7565b60405180910390f35b6101d660048036038101906101d1919061253f565b610578565b6040516101e3919061257b565b60405180910390f35b61020660048036038101906102019190612596565b610594565b005b6102106105aa565b60405161021d91906125e5565b60405180910390f35b610240600480360381019061023b9190612600565b6105c0565b005b61025c60048036038101906102579190612653565b6106c2565b60405161026a929190612693565b60405180910390f35b61027b6107f2565b60405161028891906126cb565b60405180910390f35b6102ab60048036038101906102a69190612600565b6107f8565b005b6102c760048036038101906102c2919061253f565b610818565b6040516102d4919061257b565b60405180910390f35b6102f760048036038101906102f291906126e6565b61082a565b60405161030491906125e5565b60405180910390f35b6103156108e4565b005b610331600480360381019061032c919061253f565b6108f8565b005b61033b61090c565b604051610348919061257b565b60405180910390f35b610359610936565b60405161036691906124e7565b60405180910390f35b61038960048036038101906103849190612848565b6109c8565b60405161039691906125e5565b60405180910390f35b6103b960048036038101906103b491906128e3565b610b12565b005b6103c3610b28565b005b6103df60048036038101906103da91906129c4565b610b3a565b005b6103fb60048036038101906103f6919061253f565b610b5f565b60405161040891906124e7565b60405180910390f35b61042b60048036038101906104269190612a47565b610c72565b604051610438919061235a565b60405180910390f35b61045b600480360381019061045691906126e6565b610d06565b005b600061046882610d8c565b9050919050565b610477610e06565b6107d06bffffffffffffffffffffffff16816bffffffffffffffffffffffff1611156104d8576040517f08c379a00000000000000000000000000000000000000000000000000000000081526004016104cf90612ad3565b60405180910390fd5b6104e28282610e8d565b5050565b6060600080546104f590612b22565b80601f016020809104026020016040519081016040528092919081815260200182805461052190612b22565b801561056e5780601f106105435761010080835404028352916020019161056e565b820191906000526020600020905b81548152906001019060200180831161055157829003601f168201915b5050505050905090565b60006105838261102f565b5061058d826110b7565b9050919050565b6105a682826105a16110f4565b6110fc565b5050565b60006001600a546105bb9190612b82565b905090565b600073ffffffffffffffffffffffffffffffffffffffff168273ffffffffffffffffffffffffffffffffffffffff16036106325760006040517f64a0ae92000000000000000000000000000000000000000000000000000000008152600401610629919061257b565b60405180910390fd5b600061064683836106416110f4565b61110e565b90508373ffffffffffffffffffffffffffffffffffffffff168173ffffffffffffffffffffffffffffffffffffffff16146106bc578382826040517f64283d7b0000000000000000000000000000000000000000000000000000000081526004016106b393929190612bb6565b60405180910390fd5b50505050565b600080600060086000868152602001908152602001600020905060008160000160009054906101000a900473ffffffffffffffffffffffffffffffffffffffff16905060008260000160149054906101000a90046bffffffffffffffffffffffff169050600073ffffffffffffffffffffffffffffffffffffffff168273ffffffffffffffffffffffffffffffffffffffff16036107a357600760000160009054906101000a900473ffffffffffffffffffffffffffffffffffffffff169150600760000160149054906101000a90046bffffffffffffffffffffffff1690505b60006107ad611328565b6bffffffffffffffffffffffff16826bffffffffffffffffffffffff16886107d59190612bed565b6107df9190612c5e565b9050828195509550505050509250929050565b6107d081565b61081383838360405180602001604052806000815250610b3a565b505050565b60006108238261102f565b9050919050565b60008073ffffffffffffffffffffffffffffffffffffffff168273ffffffffffffffffffffffffffffffffffffffff160361089d5760006040517f89c62b64000000000000000000000000000000000000000000000000000000008152600401610894919061257b565b60405180910390fd5b600360008373ffffffffffffffffffffffffffffffffffffffff1673ffffffffffffffffffffffffffffffffffffffff168152602001908152602001600020549050919050565b6108ec610e06565b6108f66000611332565b565b610900610e06565b610909816113f8565b50565b6000600960009054906101000a900473ffffffffffffffffffffffffffffffffffffffff16905090565b60606001805461094590612b22565b80601f016020809104026020016040519081016040528092919081815260200182805461097190612b22565b80156109be5780601f10610993576101008083540402835291602001916109be565b820191906000526020600020905b8154815290600101906020018083116109a157829003601f168201915b5050505050905090565b60006107d06bffffffffffffffffffffffff16826bffffffffffffffffffffffff161115610a2b576040517f08c379a0000000000000000000000000000000000000000000000000000000008152600401610a2290612cdb565b60405180910390fd5b6000600a6000815480929190610a4090612cfb565b919050559050610a503382611457565b610a5a8186611550565b600073ffffffffffffffffffffffffffffffffffffffff168473ffffffffffffffffffffffffffffffffffffffff1614158015610aa557506000836bffffffffffffffffffffffff16115b15610ab657610ab58185856115ac565b5b3373ffffffffffffffffffffffffffffffffffffffff16817f131d2093b2921799bae47c613a1dd4ea3a53a61bb5273c19f29e9da157a1cf638686604051610aff929190612d43565b60405180910390a3809150509392505050565b610b24610b1d6110f4565b8383611764565b5050565b610b30610e06565b610b386118d3565b565b610b458484846105c0565b610b59610b506110f4565b85858585611920565b50505050565b6060610b6a8261102f565b506000600660008481526020019081526020016000208054610b8b90612b22565b80601f0160208091040260200160405190810160405280929190818152602001828054610bb790612b22565b8015610c045780601f10610bd957610100808354040283529160200191610c04565b820191906000526020600020905b815481529060010190602001808311610be757829003601f168201915b505050505090506000610c15611ad1565b90506000815103610c2a578192505050610c6d565b600082511115610c5f578082604051602001610c47929190612da8565b60405160208183030381529060405292505050610c6d565b610c6884611ae8565b925050505b919050565b6000600560008473ffffffffffffffffffffffffffffffffffffffff1673ffffffffffffffffffffffffffffffffffffffff16815260200190815260200160002060008373ffffffffffffffffffffffffffffffffffffffff1673ffffffffffffffffffffffffffffffffffffffff16815260200190815260200160002060009054906101000a900460ff16905092915050565b610d0e610e06565b600073ffffffffffffffffffffffffffffffffffffffff168173ffffffffffffffffffffffffffffffffffffffff1603610d805760006040517f1e4fbdf7000000000000000000000000000000000000000000000000000000008152600401610d77919061257b565b60405180910390fd5b610d8981611332565b50565b60007f2a55205a000000000000000000000000000000000000000000000000000000007bffffffffffffffffffffffffffffffffffffffffffffffffffffffff1916827bffffffffffffffffffffffffffffffffffffffffffffffffffffffff19161480610dff5750610dfe82611b51565b5b9050919050565b610e0e6110f4565b73ffffffffffffffffffffffffffffffffffffffff16610e2c61090c565b73ffffffffffffffffffffffffffffffffffffffff1614610e8b57610e4f6110f4565b6040517f118cdaa7000000000000000000000000000000000000000000000000000000008152600401610e82919061257b565b60405180910390fd5b565b6000610e97611328565b6bffffffffffffffffffffffff16905080826bffffffffffffffffffffffff161115610efc5781816040517f6f483d09000000000000000000000000000000000000000000000000000000008152600401610ef3929190612e07565b60405180910390fd5b600073ffffffffffffffffffffffffffffffffffffffff168373ffffffffffffffffffffffffffffffffffffffff1603610f6e5760006040517fb6d9900a000000000000000000000000000000000000000000000000000000008152600401610f65919061257b565b60405180910390fd5b60405180604001604052808473ffffffffffffffffffffffffffffffffffffffff168152602001836bffffffffffffffffffffffff16815250600760008201518160000160006101000a81548173ffffffffffffffffffffffffffffffffffffffff021916908373ffffffffffffffffffffffffffffffffffffffff16021790555060208201518160000160146101000a8154816bffffffffffffffffffffffff02191690836bffffffffffffffffffffffff160217905550905050505050565b60008061103b83611bb2565b9050600073ffffffffffffffffffffffffffffffffffffffff168173ffffffffffffffffffffffffffffffffffffffff16036110ae57826040517f7e2732890000000000000000000000000000000000000000000000000000000081526004016110a591906125e5565b60405180910390fd5b80915050919050565b60006004600083815260200190815260200160002060009054906101000a900473ffffffffffffffffffffffffffffffffffffffff169050919050565b600033905090565b6111098383836001611bef565b505050565b60008061111a84611bb2565b9050600073ffffffffffffffffffffffffffffffffffffffff168373ffffffffffffffffffffffffffffffffffffffff161461115c5761115b818486611db4565b5b600073ffffffffffffffffffffffffffffffffffffffff168173ffffffffffffffffffffffffffffffffffffffff16146111ed5761119e600085600080611bef565b6001600360008373ffffffffffffffffffffffffffffffffffffffff1673ffffffffffffffffffffffffffffffffffffffff168152602001908152602001600020600082825403925050819055505b600073ffffffffffffffffffffffffffffffffffffffff168573ffffffffffffffffffffffffffffffffffffffff1614611270576001600360008773ffffffffffffffffffffffffffffffffffffffff1673ffffffffffffffffffffffffffffffffffffffff168152602001908152602001600020600082825401925050819055505b846002600086815260200190815260200160002060006101000a81548173ffffffffffffffffffffffffffffffffffffffff021916908373ffffffffffffffffffffffffffffffffffffffff160217905550838573ffffffffffffffffffffffffffffffffffffffff168273ffffffffffffffffffffffffffffffffffffffff167fddf252ad1be2c89b69c2b068fc378daa952ba7f163c4a11628f55a4df523b3ef60405160405180910390a4809150509392505050565b6000612710905090565b6000600960009054906101000a900473ffffffffffffffffffffffffffffffffffffffff16905081600960006101000a81548173ffffffffffffffffffffffffffffffffffffffff021916908373ffffffffffffffffffffffffffffffffffffffff1602179055508173ffffffffffffffffffffffffffffffffffffffff168173ffffffffffffffffffffffffffffffffffffffff167f8be0079c531659141344cd1fd0a4f28419497f9722a3daafe3b4186f6b6457e060405160405180910390a35050565b60086000828152602001908152602001600020600080820160006101000a81549073ffffffffffffffffffffffffffffffffffffffff02191690556000820160146101000a8154906bffffffffffffffffffffffff0219169055505050565b600073ffffffffffffffffffffffffffffffffffffffff168273ffffffffffffffffffffffffffffffffffffffff16036114c95760006040517f64a0ae920000000000000000000000000000000000000000000000000000000081526004016114c0919061257b565b60405180910390fd5b60006114d78383600061110e565b9050600073ffffffffffffffffffffffffffffffffffffffff168173ffffffffffffffffffffffffffffffffffffffff161461154b5760006040517f73c6ac6e000000000000000000000000000000000000000000000000000000008152600401611542919061257b565b60405180910390fd5b505050565b806006600084815260200190815260200160002090816115709190612fd2565b507ff8e1a15aba9398e019f0b49df1a4fde98ee17ae345cb5f6b5e2c27f5033e8ce7826040516115a091906125e5565b60405180910390a15050565b60006115b6611328565b6bffffffffffffffffffffffff16905080826bffffffffffffffffffffffff16111561161d578382826040517fdfd1fc1b000000000000000000000000000000000000000000000000000000008152600401611614939291906130a4565b60405180910390fd5b600073ffffffffffffffffffffffffffffffffffffffff168373ffffffffffffffffffffffffffffffffffffffff1603611691578360006040517f969f08520000000000000000000000000000000000000000000000000000000081526004016116889291906130db565b60405180910390fd5b60405180604001604052808473ffffffffffffffffffffffffffffffffffffffff168152602001836bffffffffffffffffffffffff168152506008600086815260200190815260200160002060008201518160000160006101000a81548173ffffffffffffffffffffffffffffffffffffffff021916908373ffffffffffffffffffffffffffffffffffffffff16021790555060208201518160000160146101000a8154816bffffffffffffffffffffffff02191690836bffffffffffffffffffffffff16021790555090505050505050565b600073ffffffffffffffffffffffffffffffffffffffff168273ffffffffffffffffffffffffffffffffffffffff16036117d557816040517f5b08ba180000000000000000000000000000000000000000000000000000000081526004016117cc919061257b565b60405180910390fd5b80600560008573ffffffffffffffffffffffffffffffffffffffff1673ffffffffffffffffffffffffffffffffffffffff16815260200190815260200160002060008473ffffffffffffffffffffffffffffffffffffffff1673ffffffffffffffffffffffffffffffffffffffff16815260200190815260200160002060006101000a81548160ff0219169083151502179055508173ffffffffffffffffffffffffffffffffffffffff168373ffffffffffffffffffffffffffffffffffffffff167f17307eab39ab6107e8899845ad3d59bd9653f200f220920489ca2b5937696c31836040516118c6919061235a565b60405180910390a3505050565b6007600080820160006101000a81549073ffffffffffffffffffffffffffffffffffffffff02191690556000820160146101000a8154906bffffffffffffffffffffffff02191690555050565b60008373ffffffffffffffffffffffffffffffffffffffff163b1115611aca578273ffffffffffffffffffffffffffffffffffffffff1663150b7a02868685856040518563ffffffff1660e01b815260040161197f9493929190613159565b6020604051808303816000875af19250505080156119bb57506040513d601f19601f820116820180604052508101906119b891906131ba565b60015b611a3f573d80600081146119eb576040519150601f19603f3d011682016040523d82523d6000602084013e6119f0565b606091505b506000815103611a3757836040517f64a0ae92000000000000000000000000000000000000000000000000000000008152600401611a2e919061257b565b60405180910390fd5b805160208201fd5b63150b7a0260e01b7bffffffffffffffffffffffffffffffffffffffffffffffffffffffff1916817bffffffffffffffffffffffffffffffffffffffffffffffffffffffff191614611ac857836040517f64a0ae92000000000000000000000000000000000000000000000000000000008152600401611abf919061257b565b60405180910390fd5b505b5050505050565b606060405180602001604052806000815250905090565b6060611af38261102f565b506000611afe611ad1565b90506000815111611b1e5760405180602001604052806000815250611b49565b80611b2884611e78565b604051602001611b39929190612da8565b6040516020818303038152906040525b915050919050565b6000634906490660e01b7bffffffffffffffffffffffffffffffffffffffffffffffffffffffff1916827bffffffffffffffffffffffffffffffffffffffffffffffffffffffff19161480611bab5750611baa82611f46565b5b9050919050565b60006002600083815260200190815260200160002060009054906101000a900473ffffffffffffffffffffffffffffffffffffffff169050919050565b8080611c285750600073ffffffffffffffffffffffffffffffffffffffff168273ffffffffffffffffffffffffffffffffffffffff1614155b15611d5c576000611c388461102f565b9050600073ffffffffffffffffffffffffffffffffffffffff168373ffffffffffffffffffffffffffffffffffffffff1614158015611ca357508273ffffffffffffffffffffffffffffffffffffffff168173ffffffffffffffffffffffffffffffffffffffff1614155b8015611cb65750611cb48184610c72565b155b15611cf857826040517fa9fbf51f000000000000000000000000000000000000000000000000000000008152600401611cef919061257b565b60405180910390fd5b8115611d5a57838573ffffffffffffffffffffffffffffffffffffffff168273ffffffffffffffffffffffffffffffffffffffff167f8c5be1e5ebec7d5bd14f71427d1e84f3dd0314c0f7b2291e5b200ac8c7c3b92560405160405180910390a45b505b836004600085815260200190815260200160002060006101000a81548173ffffffffffffffffffffffffffffffffffffffff021916908373ffffffffffffffffffffffffffffffffffffffff16021790555050505050565b611dbf838383612028565b611e7357600073ffffffffffffffffffffffffffffffffffffffff168373ffffffffffffffffffffffffffffffffffffffff1603611e3457806040517f7e273289000000000000000000000000000000000000000000000000000000008152600401611e2b91906125e5565b60405180910390fd5b81816040517f177e802f000000000000000000000000000000000000000000000000000000008152600401611e6a929190612693565b60405180910390fd5b505050565b606060006001611e87846120e9565b01905060008167ffffffffffffffff811115611ea657611ea561271d565b5b6040519080825280601f01601f191660200182016040528015611ed85781602001600182028036833780820191505090505b509050600082602083010190505b600115611f3b578080600190039150507f3031323334353637383961626364656600000000000000000000000000000000600a86061a8153600a8581611f2f57611f2e612c2f565b5b04945060008503611ee6575b819350505050919050565b60007f80ac58cd000000000000000000000000000000000000000000000000000000007bffffffffffffffffffffffffffffffffffffffffffffffffffffffff1916827bffffffffffffffffffffffffffffffffffffffffffffffffffffffff1916148061201157507f5b5e139f000000000000000000000000000000000000000000000000000000007bffffffffffffffffffffffffffffffffffffffffffffffffffffffff1916827bffffffffffffffffffffffffffffffffffffffffffffffffffffffff1916145b8061202157506120208261223c565b5b9050919050565b60008073ffffffffffffffffffffffffffffffffffffffff168373ffffffffffffffffffffffffffffffffffffffff16141580156120e057508273ffffffffffffffffffffffffffffffffffffffff168473ffffffffffffffffffffffffffffffffffffffff1614806120a157506120a08484610c72565b5b806120df57508273ffffffffffffffffffffffffffffffffffffffff166120c7836110b7565b73ffffffffffffffffffffffffffffffffffffffff16145b5b90509392505050565b600080600090507a184f03e93ff9f4daa797ed6e38ed64bf6a1f0100000000000000008310612147577a184f03e93ff9f4daa797ed6e38ed64bf6a1f010000000000000000838161213d5761213c612c2f565b5b0492506040810190505b6d04ee2d6d415b85acef81000000008310612184576d04ee2d6d415b85acef8100000000838161217a57612179612c2f565b5b0492506020810190505b662386f26fc1000083106121b357662386f26fc1000083816121a9576121a8612c2f565b5b0492506010810190505b6305f5e10083106121dc576305f5e10083816121d2576121d1612c2f565b5b0492506008810190505b61271083106122015761271083816121f7576121f6612c2f565b5b0492506004810190505b60648310612224576064838161221a57612219612c2f565b5b0492506002810190505b600a8310612233576001810190505b80915050919050565b60007f01ffc9a7000000000000000000000000000000000000000000000000000000007bffffffffffffffffffffffffffffffffffffffffffffffffffffffff1916827bffffffffffffffffffffffffffffffffffffffffffffffffffffffff1916149050919050565b6000604051905090565b600080fd5b600080fd5b60007fffffffff0000000000000000000000000000000000000000000000000000000082169050919050565b6122ef816122ba565b81146122fa57600080fd5b50565b60008135905061230c816122e6565b92915050565b600060208284031215612328576123276122b0565b5b6000612336848285016122fd565b91505092915050565b60008115159050919050565b6123548161233f565b82525050565b600060208201905061236f600083018461234b565b92915050565b600073ffffffffffffffffffffffffffffffffffffffff82169050919050565b60006123a082612375565b9050919050565b6123b081612395565b81146123bb57600080fd5b50565b6000813590506123cd816123a7565b92915050565b60006bffffffffffffffffffffffff82169050919050565b6123f4816123d3565b81146123ff57600080fd5b50565b600081359050612411816123eb565b92915050565b6000806040838503121561242e5761242d6122b0565b5b600061243c858286016123be565b925050602061244d85828601612402565b9150509250929050565b600081519050919050565b600082825260208201905092915050565b60005b83811015612491578082015181840152602081019050612476565b60008484015250505050565b6000601f19601f8301169050919050565b60006124b982612457565b6124c38185612462565b93506124d3818560208601612473565b6124dc8161249d565b840191505092915050565b6000602082019050818103600083015261250181846124ae565b905092915050565b6000819050919050565b61251c81612509565b811461252757600080fd5b50565b60008135905061253981612513565b92915050565b600060208284031215612555576125546122b0565b5b60006125638482850161252a565b91505092915050565b61257581612395565b82525050565b6000602082019050612590600083018461256c565b92915050565b600080604083850312156125ad576125ac6122b0565b5b60006125bb858286016123be565b92505060206125cc8582860161252a565b9150509250929050565b6125df81612509565b82525050565b60006020820190506125fa60008301846125d6565b92915050565b600080600060608486031215612619576126186122b0565b5b6000612627868287016123be565b9350506020612638868287016123be565b92505060406126498682870161252a565b9150509250925092565b6000806040838503121561266a576126696122b0565b5b60006126788582860161252a565b92505060206126898582860161252a565b9150509250929050565b60006040820190506126a8600083018561256c565b6126b560208301846125d6565b9392505050565b6126c5816123d3565b82525050565b60006020820190506126e060008301846126bc565b92915050565b6000602082840312156126fc576126fb6122b0565b5b600061270a848285016123be565b91505092915050565b600080fd5b600080fd5b7f4e487b7100000000000000000000000000000000000000000000000000000000600052604160045260246000fd5b6127558261249d565b810181811067ffffffffffffffff821117156127745761277361271d565b5b80604052505050565b60006127876122a6565b9050612793828261274c565b919050565b600067ffffffffffffffff8211156127b3576127b261271d565b5b6127bc8261249d565b9050602081019050919050565b82818337600083830152505050565b60006127eb6127e684612798565b61277d565b90508281526020810184848401111561280757612806612718565b5b6128128482856127c9565b509392505050565b600082601f83011261282f5761282e612713565b5b813561283f8482602086016127d8565b91505092915050565b600080600060608486031215612861576128606122b0565b5b600084013567ffffffffffffffff81111561287f5761287e6122b5565b5b61288b8682870161281a565b935050602061289c868287016123be565b92505060406128ad86828701612402565b9150509250925092565b6128c08161233f565b81146128cb57600080fd5b50565b6000813590506128dd816128b7565b92915050565b600080604083850312156128fa576128f96122b0565b5b6000612908858286016123be565b9250506020612919858286016128ce565b9150509250929050565b600067ffffffffffffffff82111561293e5761293d61271d565b5b6129478261249d565b9050602081019050919050565b600061296761296284612923565b61277d565b90508281526020810184848401111561298357612982612718565b5b61298e8482856127c9565b509392505050565b600082601f8301126129ab576129aa612713565b5b81356129bb848260208601612954565b91505092915050565b600080600080608085870312156129de576129dd6122b0565b5b60006129ec878288016123be565b94505060206129fd878288016123be565b9350506040612a0e8782880161252a565b925050606085013567ffffffffffffffff811115612a2f57612a2e6122b5565b5b612a3b87828801612996565b91505092959194509250565b60008060408385031215612a5e57612a5d6122b0565b5b6000612a6c858286016123be565b9250506020612a7d858286016123be565b9150509250929050565b7f66656520746f6f20686967680000000000000000000000000000000000000000600082015250565b6000612abd600c83612462565b9150612ac882612a87565b602082019050919050565b60006020820190508181036000830152612aec81612ab0565b9050919050565b7f4e487b7100000000000000000000000000000000000000000000000000000000600052602260045260246000fd5b60006002820490506001821680612b3a57607f821691505b602082108103612b4d57612b4c612af3565b5b50919050565b7f4e487b7100000000000000000000000000000000000000000000000000000000600052601160045260246000fd5b6000612b8d82612509565b9150612b9883612509565b9250828203905081811115612bb057612baf612b53565b5b92915050565b6000606082019050612bcb600083018661256c565b612bd860208301856125d6565b612be5604083018461256c565b949350505050565b6000612bf882612509565b9150612c0383612509565b9250828202612c1181612509565b91508282048414831517612c2857612c27612b53565b5b5092915050565b7f4e487b7100000000000000000000000000000000000000000000000000000000600052601260045260246000fd5b6000612c6982612509565b9150612c7483612509565b925082612c8457612c83612c2f565b5b828204905092915050565b7f726f79616c747920746f6f206869676800000000000000000000000000000000600082015250565b6000612cc5601083612462565b9150612cd082612c8f565b602082019050919050565b60006020820190508181036000830152612cf481612cb8565b9050919050565b6000612d0682612509565b91507fffffffffffffffffffffffffffffffffffffffffffffffffffffffffffffffff8203612d3857612d37612b53565b5b600182019050919050565b6000604082019050612d58600083018561256c565b612d6560208301846126bc565b9392505050565b600081905092915050565b6000612d8282612457565b612d8c8185612d6c565b9350612d9c818560208601612473565b80840191505092915050565b6000612db48285612d77565b9150612dc08284612d77565b91508190509392505050565b6000819050919050565b6000612df1612dec612de7846123d3565b612dcc565b612509565b9050919050565b612e0181612dd6565b82525050565b6000604082019050612e1c6000830185612df8565b612e2960208301846125d6565b9392505050565b60008190508160005260206000209050919050565b60006020601f8301049050919050565b600082821b905092915050565b600060088302612e927fffffffffffffffffffffffffffffffffffffffffffffffffffffffffffffffff82612e55565b612e9c8683612e55565b95508019841693508086168417925050509392505050565b6000612ecf612eca612ec584612509565b612dcc565b612509565b9050919050565b6000819050919050565b612ee983612eb4565b612efd612ef582612ed6565b848454612e62565b825550505050565b600090565b612f12612f05565b612f1d818484612ee0565b505050565b5b81811015612f4157612f36600082612f0a565b600181019050612f23565b5050565b601f821115612f8657612f5781612e30565b612f6084612e45565b81016020851015612f6f578190505b612f83612f7b85612e45565b830182612f22565b50505b505050565b600082821c905092915050565b6000612fa960001984600802612f8b565b1980831691505092915050565b6000612fc28383612f98565b9150826002028217905092915050565b612fdb82612457565b67ffffffffffffffff811115612ff457612ff361271d565b5b612ffe8254612b22565b613009828285612f45565b600060209050601f83116001811461303c576000841561302a578287015190505b6130348582612fb6565b86555061309c565b601f19841661304a86612e30565b60005b828110156130725784890151825560018201915060208501945060208101905061304d565b8683101561308f578489015161308b601f891682612f98565b8355505b6001600288020188555050505b505050505050565b60006060820190506130b960008301866125d6565b6130c66020830185612df8565b6130d360408301846125d6565b949350505050565b60006040820190506130f060008301856125d6565b6130fd602083018461256c565b9392505050565b600081519050919050565b600082825260208201905092915050565b600061312b82613104565b613135818561310f565b9350613145818560208601612473565b61314e8161249d565b840191505092915050565b600060808201905061316e600083018761256c565b61317b602083018661256c565b61318860408301856125d6565b818103606083015261319a8184613120565b905095945050505050565b6000815190506131b4816122e6565b92915050565b6000602082840312156131d0576131cf6122b0565b5b60006131de848285016131a5565b9150509291505056fea2646970667358221220dc6b24dd9b092336a57ebe34a5e2035a71bdcb5059eaff124a80c8d65663f7ba64736f6c634300081c0033",
  "linkReferences": {},
  "deployedLinkReferences": {}
}